{
  "contractName": "couponModify",
  "abi": [
    {
      "constant": true,
      "inputs": [
        {
          "internalType": "uint256",
          "name": "",
          "type": "uint256"
        }
      ],
      "name": "coupons",
      "outputs": [
        {
          "internalType": "bytes32",
          "name": "couponAddress",
          "type": "bytes32"
        },
        {
          "internalType": "uint256",
          "name": "value",
          "type": "uint256"
        },
        {
          "internalType": "address payable",
          "name": "owner",
          "type": "address"
        },
        {
          "internalType": "string",
          "name": "keyword",
          "type": "string"
        }
      ],
      "payable": false,
      "stateMutability": "view",
      "type": "function"
    },
    {
      "constant": true,
      "inputs": [
        {
          "internalType": "address",
          "name": "",
          "type": "address"
        }
      ],
      "name": "ownerAccounts",
      "outputs": [
        {
          "internalType": "uint256",
          "name": "",
          "type": "uint256"
        }
      ],
      "payable": false,
      "stateMutability": "view",
      "type": "function"
    },
    {
      "constant": false,
      "inputs": [],
      "name": "setAccount",
      "outputs": [],
      "payable": false,
      "stateMutability": "nonpayable",
      "type": "function"
    },
    {
      "constant": true,
      "inputs": [],
      "name": "checkAccount",
      "outputs": [
        {
          "internalType": "bool",
          "name": "",
          "type": "bool"
        }
      ],
      "payable": false,
      "stateMutability": "view",
      "type": "function"
    },
    {
      "constant": false,
      "inputs": [],
      "name": "deposit",
      "outputs": [],
      "payable": true,
      "stateMutability": "payable",
      "type": "function"
    },
    {
      "constant": false,
      "inputs": [],
      "name": "withdraw",
      "outputs": [],
      "payable": true,
      "stateMutability": "payable",
      "type": "function"
    },
    {
      "constant": false,
      "inputs": [
        {
          "internalType": "bytes32",
          "name": "_couponAddress",
          "type": "bytes32"
        },
        {
          "internalType": "string",
          "name": "_keyword",
          "type": "string"
        }
      ],
      "name": "addNew",
      "outputs": [],
      "payable": false,
      "stateMutability": "nonpayable",
      "type": "function"
    },
    {
      "constant": false,
      "inputs": [
        {
          "internalType": "uint256",
          "name": "_id",
          "type": "uint256"
        }
      ],
      "name": "useCoupon",
      "outputs": [],
      "payable": false,
      "stateMutability": "nonpayable",
      "type": "function"
    },
    {
      "constant": false,
      "inputs": [
        {
          "internalType": "uint256",
          "name": "_id",
          "type": "uint256"
        }
      ],
      "name": "removeFromMarket",
      "outputs": [],
      "payable": false,
      "stateMutability": "nonpayable",
      "type": "function"
    },
    {
      "constant": false,
      "inputs": [
        {
          "internalType": "uint256",
          "name": "_id",
          "type": "uint256"
        }
      ],
      "name": "addToMarket",
      "outputs": [],
      "payable": true,
      "stateMutability": "payable",
      "type": "function"
    },
    {
      "constant": false,
      "inputs": [],
      "name": "getSearchAll",
      "outputs": [],
      "payable": false,
      "stateMutability": "nonpayable",
      "type": "function"
    },
    {
      "constant": true,
      "inputs": [],
      "name": "showSearchAll",
      "outputs": [
        {
          "components": [
            {
              "internalType": "bytes32",
              "name": "couponAddress",
              "type": "bytes32"
            },
            {
              "internalType": "uint256",
              "name": "value",
              "type": "uint256"
            },
            {
              "internalType": "address payable",
              "name": "owner",
              "type": "address"
            },
            {
              "internalType": "string",
              "name": "keyword",
              "type": "string"
            }
          ],
          "internalType": "struct couponModify.Inventory[]",
          "name": "",
          "type": "tuple[]"
        }
      ],
      "payable": false,
      "stateMutability": "view",
      "type": "function"
    },
    {
      "constant": false,
      "inputs": [],
      "name": "getInventory",
      "outputs": [],
      "payable": false,
      "stateMutability": "nonpayable",
      "type": "function"
    },
    {
      "constant": true,
      "inputs": [],
      "name": "showInventory",
      "outputs": [
        {
          "components": [
            {
              "internalType": "bytes32",
              "name": "couponAddress",
              "type": "bytes32"
            },
            {
              "internalType": "uint256",
              "name": "value",
              "type": "uint256"
            },
            {
              "internalType": "address payable",
              "name": "owner",
              "type": "address"
            },
            {
              "internalType": "string",
              "name": "keyword",
              "type": "string"
            }
          ],
          "internalType": "struct couponModify.Inventory[]",
          "name": "",
          "type": "tuple[]"
        }
      ],
      "payable": false,
      "stateMutability": "view",
      "type": "function"
    },
    {
      "constant": false,
      "inputs": [
        {
          "internalType": "uint256",
          "name": "_id",
          "type": "uint256"
        }
      ],
      "name": "Buy",
      "outputs": [],
      "payable": true,
      "stateMutability": "payable",
      "type": "function"
    },
    {
      "constant": false,
      "inputs": [
        {
          "internalType": "uint256",
          "name": "_mycouponID",
          "type": "uint256"
        },
        {
          "internalType": "uint256",
          "name": "_wantedcouponID",
          "type": "uint256"
        }
      ],
      "name": "Trade",
      "outputs": [],
      "payable": true,
      "stateMutability": "payable",
      "type": "function"
    }
  ],
  "bytecode": "0x6080604052600060045534801561001557600080fd5b506128ab806100256000396000f3fe6080604052600436106100f35760003560e01c80636457bd041161008a578063b2bbef8e11610059578063b2bbef8e14610295578063b8fcf5be146102c0578063d0e30db0146102d7578063f641d5ec146102e1576100f3565b80636457bd04146101fe5780637dab3269146102275780638e0ab38a14610250578063992796fd1461026c576100f3565b80633e328218116100c65780633e32821814610189578063469c6dbb146101a55780635c13a439146101bc5780635d7f850c146101e7576100f3565b8063169c93d1146100f857806330828e9214610114578063314563c4146101545780633ccfd60b1461017f575b600080fd5b610112600480360361010d919081019061216e565b61031e565b005b34801561012057600080fd5b5061013b60048036036101369190810190612145565b61089e565b60405161014b94939291906125ae565b60405180910390f35b34801561016057600080fd5b50610169610986565b6040516101769190612571565b60405180910390f35b610187610b84565b005b6101a3600480360361019e9190810190612145565b610cad565b005b3480156101b157600080fd5b506101ba611050565b005b3480156101c857600080fd5b506101d161113d565b6040516101de9190612593565b60405180910390f35b3480156101f357600080fd5b506101fc611191565b005b34801561020a57600080fd5b5061022560048036036102209190810190612145565b611395565b005b34801561023357600080fd5b5061024e60048036036102499190810190612145565b6114da565b005b61026a60048036036102659190810190612145565b61164e565b005b34801561027857600080fd5b50610293600480360361028e91908101906120ed565b6117ae565b005b3480156102a157600080fd5b506102aa6119f3565b6040516102b79190612571565b60405180910390f35b3480156102cc57600080fd5b506102d5611bf1565b005b6102df611dcd565b005b3480156102ed57600080fd5b50610308600480360361030391908101906120c4565b611eaf565b60405161031591906126fa565b60405180910390f35b60011515600360003373ffffffffffffffffffffffffffffffffffffffff1673ffffffffffffffffffffffffffffffffffffffff16815260200190815260200160002060009054906101000a900460ff161515146103b1576040517f08c379a00000000000000000000000000000000000000000000000000000000081526004016103a8906126ba565b60405180910390fd5b6001600083815260200190815260200160002060020160009054906101000a900473ffffffffffffffffffffffffffffffffffffffff1673ffffffffffffffffffffffffffffffffffffffff163373ffffffffffffffffffffffffffffffffffffffff1614610455576040517f08c379a000000000000000000000000000000000000000000000000000000000815260040161044c906126da565b60405180910390fd5b6001600082815260200190815260200160002060020160009054906101000a900473ffffffffffffffffffffffffffffffffffffffff1673ffffffffffffffffffffffffffffffffffffffff163373ffffffffffffffffffffffffffffffffffffffff1614156104fa576040517f08c379a00000000000000000000000000000000000000000000000000000000081526004016104f19061265a565b60405180910390fd5b34600260003373ffffffffffffffffffffffffffffffffffffffff1673ffffffffffffffffffffffffffffffffffffffff16815260200190815260200160002054101561057c576040517f08c379a00000000000000000000000000000000000000000000000000000000081526004016105739061269a565b60405180910390fd5b600160008281526020019081526020016000206001015434600160008581526020019081526020016000206001015401146105ec576040517f08c379a00000000000000000000000000000000000000000000000000000000081526004016105e3906125fa565b60405180910390fd5b60016000806001600086815260200190815260200160002060000154815260200190815260200160002060006101000a81548160ff021916908315150217905561066b576040517f08c379a00000000000000000000000000000000000000000000000000000000081526004016106629061261a565b60405180910390fd5b60016000806001600085815260200190815260200160002060000154815260200190815260200160002060006101000a81548160ff02191690831515021790556106ea576040517f08c379a00000000000000000000000000000000000000000000000000000000081526004016106e19061263a565b60405180910390fd5b34600260003373ffffffffffffffffffffffffffffffffffffffff1673ffffffffffffffffffffffffffffffffffffffff1681526020019081526020016000206000828254039250508190555034600260006001600085815260200190815260200160002060020160009054906101000a900473ffffffffffffffffffffffffffffffffffffffff1673ffffffffffffffffffffffffffffffffffffffff1673ffffffffffffffffffffffffffffffffffffffff168152602001908152602001600020600082825401925050819055506001600082815260200190815260200160002060020160009054906101000a900473ffffffffffffffffffffffffffffffffffffffff166001600084815260200190815260200160002060020160006101000a81548173ffffffffffffffffffffffffffffffffffffffff021916908373ffffffffffffffffffffffffffffffffffffffff160217905550336001600083815260200190815260200160002060020160006101000a81548173ffffffffffffffffffffffffffffffffffffffff021916908373ffffffffffffffffffffffffffffffffffffffff1602179055505050565b60016020528060005260406000206000915090508060000154908060010154908060020160009054906101000a900473ffffffffffffffffffffffffffffffffffffffff1690806003018054600181600116156101000203166002900480601f01602080910402602001604051908101604052809291908181526020018280546001816001161561010002031660029004801561097c5780601f106109515761010080835404028352916020019161097c565b820191906000526020600020905b81548152906001019060200180831161095f57829003601f168201915b5050505050905084565b606060011515600360003373ffffffffffffffffffffffffffffffffffffffff1673ffffffffffffffffffffffffffffffffffffffff16815260200190815260200160002060009054906101000a900460ff16151514610a1b576040517f08c379a0000000000000000000000000000000000000000000000000000000008152600401610a12906126ba565b60405180910390fd5b6006805480602002602001604051908101604052809291908181526020016000905b82821015610b7b578382906000526020600020906004020160405180608001604052908160008201548152602001600182015481526020016002820160009054906101000a900473ffffffffffffffffffffffffffffffffffffffff1673ffffffffffffffffffffffffffffffffffffffff1673ffffffffffffffffffffffffffffffffffffffff168152602001600382018054600181600116156101000203166002900480601f016020809104026020016040519081016040528092919081815260200182805460018160011615610100020316600290048015610b635780601f10610b3857610100808354040283529160200191610b63565b820191906000526020600020905b815481529060010190602001808311610b4657829003601f168201915b50505050508152505081526020019060010190610a3d565b50505050905090565b60011515600360003373ffffffffffffffffffffffffffffffffffffffff1673ffffffffffffffffffffffffffffffffffffffff16815260200190815260200160002060009054906101000a900460ff16151514610c17576040517f08c379a0000000000000000000000000000000000000000000000000000000008152600401610c0e906126ba565b60405180910390fd5b34600260003373ffffffffffffffffffffffffffffffffffffffff1673ffffffffffffffffffffffffffffffffffffffff168152602001908152602001600020600082825403925050819055503373ffffffffffffffffffffffffffffffffffffffff166108fc349081150290604051600060405180830381858888f19350505050158015610caa573d6000803e3d6000fd5b50565b60011515600360003373ffffffffffffffffffffffffffffffffffffffff1673ffffffffffffffffffffffffffffffffffffffff16815260200190815260200160002060009054906101000a900460ff16151514610d40576040517f08c379a0000000000000000000000000000000000000000000000000000000008152600401610d37906126ba565b60405180910390fd5b6001600082815260200190815260200160002060020160009054906101000a900473ffffffffffffffffffffffffffffffffffffffff1673ffffffffffffffffffffffffffffffffffffffff163373ffffffffffffffffffffffffffffffffffffffff161415610de5576040517f08c379a0000000000000000000000000000000000000000000000000000000008152600401610ddc906126da565b60405180910390fd5b6001600082815260200190815260200160002060010154600260003373ffffffffffffffffffffffffffffffffffffffff1673ffffffffffffffffffffffffffffffffffffffff168152602001908152602001600020541015610e7d576040517f08c379a0000000000000000000000000000000000000000000000000000000008152600401610e749061269a565b60405180910390fd5b60016000806001600085815260200190815260200160002060000154815260200190815260200160002060006101000a81548160ff0219169083151502179055610efc576040517f08c379a0000000000000000000000000000000000000000000000000000000008152600401610ef39061261a565b60405180910390fd5b6001600082815260200190815260200160002060010154600260003373ffffffffffffffffffffffffffffffffffffffff1673ffffffffffffffffffffffffffffffffffffffff168152602001908152602001600020600082825403925050819055506001600082815260200190815260200160002060010154600260006001600085815260200190815260200160002060020160009054906101000a900473ffffffffffffffffffffffffffffffffffffffff1673ffffffffffffffffffffffffffffffffffffffff1673ffffffffffffffffffffffffffffffffffffffff16815260200190815260200160002060008282540192505081905550336001600083815260200190815260200160002060020160006101000a81548173ffffffffffffffffffffffffffffffffffffffff021916908373ffffffffffffffffffffffffffffffffffffffff16021790555050565b60001515600360003373ffffffffffffffffffffffffffffffffffffffff1673ffffffffffffffffffffffffffffffffffffffff16815260200190815260200160002060009054906101000a900460ff161515146110e3576040517f08c379a00000000000000000000000000000000000000000000000000000000081526004016110da9061267a565b60405180910390fd5b6001600360003373ffffffffffffffffffffffffffffffffffffffff1673ffffffffffffffffffffffffffffffffffffffff16815260200190815260200160002060006101000a81548160ff021916908315150217905550565b6000600360003373ffffffffffffffffffffffffffffffffffffffff1673ffffffffffffffffffffffffffffffffffffffff16815260200190815260200160002060009054906101000a900460ff16905090565b60011515600360003373ffffffffffffffffffffffffffffffffffffffff1673ffffffffffffffffffffffffffffffffffffffff16815260200190815260200160002060009054906101000a900460ff16151514611224576040517f08c379a000000000000000000000000000000000000000000000000000000000815260040161121b906126ba565b60405180910390fd5b60008090505b600454811015611392573373ffffffffffffffffffffffffffffffffffffffff166001600083815260200190815260200160002060020160009054906101000a900473ffffffffffffffffffffffffffffffffffffffff1673ffffffffffffffffffffffffffffffffffffffff161415611385576006600160008381526020019081526020016000209080600181540180825580915050906001820390600052602060002090600402016000909192909190915060008201548160000155600182015481600101556002820160009054906101000a900473ffffffffffffffffffffffffffffffffffffffff168160020160006101000a81548173ffffffffffffffffffffffffffffffffffffffff021916908373ffffffffffffffffffffffffffffffffffffffff16021790555060038201816003019080546001816001161561010002031660029004611380929190611ec7565b505050505b808060010191505061122a565b50565b60011515600360003373ffffffffffffffffffffffffffffffffffffffff1673ffffffffffffffffffffffffffffffffffffffff16815260200190815260200160002060009054906101000a900460ff16151514611428576040517f08c379a000000000000000000000000000000000000000000000000000000000815260040161141f906126ba565b60405180910390fd5b6001600082815260200190815260200160002060020160009054906101000a900473ffffffffffffffffffffffffffffffffffffffff1673ffffffffffffffffffffffffffffffffffffffff163373ffffffffffffffffffffffffffffffffffffffff161461149657600080fd5b60008060006001600085815260200190815260200160002060000154815260200190815260200160002060006101000a81548160ff02191690831515021790555050565b60011515600360003373ffffffffffffffffffffffffffffffffffffffff1673ffffffffffffffffffffffffffffffffffffffff16815260200190815260200160002060009054906101000a900460ff1615151461156d576040517f08c379a0000000000000000000000000000000000000000000000000000000008152600401611564906126ba565b60405180910390fd5b6001600082815260200190815260200160002060020160009054906101000a900473ffffffffffffffffffffffffffffffffffffffff1673ffffffffffffffffffffffffffffffffffffffff163373ffffffffffffffffffffffffffffffffffffffff16146115db57600080fd5b6001600082815260200190815260200160002060008082016000905560018201600090556002820160006101000a81549073ffffffffffffffffffffffffffffffffffffffff02191690556003820160006116369190611f4e565b50506004600081548092919060019003919050555050565b60011515600360003373ffffffffffffffffffffffffffffffffffffffff1673ffffffffffffffffffffffffffffffffffffffff16815260200190815260200160002060009054906101000a900460ff161515146116e1576040517f08c379a00000000000000000000000000000000000000000000000000000000081526004016116d8906126ba565b60405180910390fd5b6001600082815260200190815260200160002060020160009054906101000a900473ffffffffffffffffffffffffffffffffffffffff1673ffffffffffffffffffffffffffffffffffffffff163373ffffffffffffffffffffffffffffffffffffffff161461174f57600080fd5b34600160008381526020019081526020016000206001018190555060016000806001600085815260200190815260200160002060000154815260200190815260200160002060006101000a81548160ff02191690831515021790555050565b60011515600360003373ffffffffffffffffffffffffffffffffffffffff1673ffffffffffffffffffffffffffffffffffffffff16815260200190815260200160002060009054906101000a900460ff16151514611841576040517f08c379a0000000000000000000000000000000000000000000000000000000008152600401611838906126ba565b60405180910390fd5b6000600160006004548152602001908152602001600020905083816000018190555060008160010181905550338160020160006101000a81548173ffffffffffffffffffffffffffffffffffffffff021916908373ffffffffffffffffffffffffffffffffffffffff16021790555082828260030191906118c3929190611f96565b506005819080600181540180825580915050906001820390600052602060002090600402016000909192909190915060008201548160000155600182015481600101556002820160009054906101000a900473ffffffffffffffffffffffffffffffffffffffff168160020160006101000a81548173ffffffffffffffffffffffffffffffffffffffff021916908373ffffffffffffffffffffffffffffffffffffffff16021790555060038201816003019080546001816001161561010002031660029004611994929190611ec7565b50505050600080600060016000600454815260200190815260200160002060000154815260200190815260200160002060006101000a81548160ff02191690831515021790555060046000815480929190600101919050555050505050565b606060011515600360003373ffffffffffffffffffffffffffffffffffffffff1673ffffffffffffffffffffffffffffffffffffffff16815260200190815260200160002060009054906101000a900460ff16151514611a88576040517f08c379a0000000000000000000000000000000000000000000000000000000008152600401611a7f906126ba565b60405180910390fd5b6007805480602002602001604051908101604052809291908181526020016000905b82821015611be8578382906000526020600020906004020160405180608001604052908160008201548152602001600182015481526020016002820160009054906101000a900473ffffffffffffffffffffffffffffffffffffffff1673ffffffffffffffffffffffffffffffffffffffff1673ffffffffffffffffffffffffffffffffffffffff168152602001600382018054600181600116156101000203166002900480601f016020809104026020016040519081016040528092919081815260200182805460018160011615610100020316600290048015611bd05780601f10611ba557610100808354040283529160200191611bd0565b820191906000526020600020905b815481529060010190602001808311611bb357829003601f168201915b50505050508152505081526020019060010190611aaa565b50505050905090565b60011515600360003373ffffffffffffffffffffffffffffffffffffffff1673ffffffffffffffffffffffffffffffffffffffff16815260200190815260200160002060009054906101000a900460ff16151514611c84576040517f08c379a0000000000000000000000000000000000000000000000000000000008152600401611c7b906126ba565b60405180910390fd5b60008090505b600454811015611dca57600115156000806001600085815260200190815260200160002060000154815260200190815260200160002060009054906101000a900460ff1615151415611dbd576007600160008381526020019081526020016000209080600181540180825580915050906001820390600052602060002090600402016000909192909190915060008201548160000155600182015481600101556002820160009054906101000a900473ffffffffffffffffffffffffffffffffffffffff168160020160006101000a81548173ffffffffffffffffffffffffffffffffffffffff021916908373ffffffffffffffffffffffffffffffffffffffff16021790555060038201816003019080546001816001161561010002031660029004611db8929190611ec7565b505050505b8080600101915050611c8a565b50565b60011515600360003373ffffffffffffffffffffffffffffffffffffffff1673ffffffffffffffffffffffffffffffffffffffff16815260200190815260200160002060009054906101000a900460ff16151514611e60576040517f08c379a0000000000000000000000000000000000000000000000000000000008152600401611e57906126ba565b60405180910390fd5b34600260003373ffffffffffffffffffffffffffffffffffffffff1673ffffffffffffffffffffffffffffffffffffffff16815260200190815260200160002060008282540192505081905550565b60026020528060005260406000206000915090505481565b828054600181600116156101000203166002900490600052602060002090601f016020900481019282601f10611f005780548555611f3d565b82800160010185558215611f3d57600052602060002091601f016020900482015b82811115611f3c578254825591600101919060010190611f21565b5b509050611f4a9190612016565b5090565b50805460018160011615610100020316600290046000825580601f10611f745750611f93565b601f016020900490600052602060002090810190611f929190612016565b5b50565b828054600181600116156101000203166002900490600052602060002090601f016020900481019282601f10611fd757803560ff1916838001178555612005565b82800160010185558215612005579182015b82811115612004578235825591602001919060010190611fe9565b5b5090506120129190612016565b5090565b61203891905b8082111561203457600081600090555060010161201c565b5090565b90565b60008135905061204a81612823565b92915050565b60008135905061205f8161283a565b92915050565b60008083601f84011261207757600080fd5b8235905067ffffffffffffffff81111561209057600080fd5b6020830191508360018202830111156120a857600080fd5b9250929050565b6000813590506120be81612851565b92915050565b6000602082840312156120d657600080fd5b60006120e48482850161203b565b91505092915050565b60008060006040848603121561210257600080fd5b600061211086828701612050565b935050602084013567ffffffffffffffff81111561212d57600080fd5b61213986828701612065565b92509250509250925092565b60006020828403121561215757600080fd5b6000612165848285016120af565b91505092915050565b6000806040838503121561218157600080fd5b600061218f858286016120af565b92505060206121a0858286016120af565b9150509250929050565b60006121b683836124f0565b905092915050565b6121c78161278d565b82525050565b6121d68161278d565b82525050565b60006121e782612725565b6121f18185612748565b93508360208202850161220385612715565b8060005b8581101561223f578484038952815161222085826121aa565b945061222b8361273b565b925060208a01995050600181019050612207565b50829750879550505050505092915050565b61225a8161279f565b82525050565b612269816127ab565b82525050565b612278816127ab565b82525050565b600061228982612730565b6122938185612759565b93506122a38185602086016127df565b6122ac81612812565b840191505092915050565b60006122c282612730565b6122cc818561276a565b93506122dc8185602086016127df565b6122e581612812565b840191505092915050565b60006122fd60108361276a565b91507f4e6f7420656e6f7567682066756e6473000000000000000000000000000000006000830152602082019050919050565b600061233d60178361276a565b91507f4e6f74204176616c6961626c6520666f722054726164650000000000000000006000830152602082019050919050565b600061237d60188361276a565b91507f204e6f74204176616c6961626c6520666f7220547261646500000000000000006000830152602082019050919050565b60006123bd60138361276a565b91507f5468697320697320796f757220636f75706f6e000000000000000000000000006000830152602082019050919050565b60006123fd601c8361276a565b91507f596f7520616c7265616479206861766520616e206163636f756e7421000000006000830152602082019050919050565b600061243d60128361276a565b91507f556e73756666696369656e742046756e647300000000000000000000000000006000830152602082019050919050565b600061247d601e8361276a565b91507f5573657220646f6573206e6f7420206861766520616e206163636f756e7400006000830152602082019050919050565b60006124bd60158361276a565b91507f596f7520617265204e6f7420746865206f776e657200000000000000000000006000830152602082019050919050565b60006080830160008301516125086000860182612260565b50602083015161251b6020860182612553565b50604083015161252e60408601826121be565b5060608301518482036060860152612546828261227e565b9150508091505092915050565b61255c816127d5565b82525050565b61256b816127d5565b82525050565b6000602082019050818103600083015261258b81846121dc565b905092915050565b60006020820190506125a86000830184612251565b92915050565b60006080820190506125c3600083018761226f565b6125d06020830186612562565b6125dd60408301856121cd565b81810360608301526125ef81846122b7565b905095945050505050565b60006020820190508181036000830152612613816122f0565b9050919050565b6000602082019050818103600083015261263381612330565b9050919050565b6000602082019050818103600083015261265381612370565b9050919050565b60006020820190508181036000830152612673816123b0565b9050919050565b60006020820190508181036000830152612693816123f0565b9050919050565b600060208201905081810360008301526126b381612430565b9050919050565b600060208201905081810360008301526126d381612470565b9050919050565b600060208201905081810360008301526126f3816124b0565b9050919050565b600060208201905061270f6000830184612562565b92915050565b6000819050602082019050919050565b600081519050919050565b600081519050919050565b6000602082019050919050565b600082825260208201905092915050565b600082825260208201905092915050565b600082825260208201905092915050565b6000612786826127b5565b9050919050565b6000612798826127b5565b9050919050565b60008115159050919050565b6000819050919050565b600073ffffffffffffffffffffffffffffffffffffffff82169050919050565b6000819050919050565b60005b838110156127fd5780820151818401526020810190506127e2565b8381111561280c576000848401525b50505050565b6000601f19601f8301169050919050565b61282c8161277b565b811461283757600080fd5b50565b612843816127ab565b811461284e57600080fd5b50565b61285a816127d5565b811461286557600080fd5b5056fea365627a7a72315820f1d638835460d726daf148a7440eb0c42098a146f8b2b659af54ea12d4ae45fc6c6578706572696d656e74616cf564736f6c63430005100040",
  "source": "pragma experimental ABIEncoderV2; \r\n\r\npragma solidity >0.5.2;\r\n\r\ncontract couponModify{\r\n \r\n   \r\n    mapping(bytes32 => bool)internal Avaliable;\r\n    mapping(uint => Inventory) public coupons;\r\n    mapping(address => uint) public ownerAccounts;\r\n    mapping(address => bool)internal hasSigned;\r\n    uint idcoupon=0;\r\n    \r\n    struct Inventory{\r\n        bytes32 couponAddress;\r\n        uint value;                 //price of coupon \r\n        address payable owner;\r\n        string keyword;\r\n    }\r\n    \r\n    \r\n    Inventory[] internal coupon;\r\n    Inventory[] internal couponAccts;\r\n    Inventory[] internal Avaliable_Coupons;\r\n    \r\n    modifier isSigned(){\r\n        require (hasSigned[msg.sender] == true, \"User does not  have an account\");\r\n        _;\r\n    }\r\n    \r\n    function setAccount () external {\r\n        require (hasSigned[msg.sender] == false, \"You already have an account!\");\r\n        hasSigned[msg.sender] = true;\r\n       \r\n    }\r\n   \r\n   function checkAccount () view external returns (bool){\r\n        return(hasSigned[msg.sender]);\r\n   }\r\n   \r\n    function deposit () external payable isSigned {\r\n        ownerAccounts[msg.sender] += msg.value;\r\n    }\r\n    function withdraw () external payable isSigned {\r\n        ownerAccounts[msg.sender] -= msg.value;\r\n        msg.sender.transfer(msg.value);\r\n    }\r\n    \r\n     function addNew(bytes32 _couponAddress, string calldata _keyword) external isSigned  {\r\n        Inventory storage new_coupon = coupons[idcoupon];\r\n        new_coupon.couponAddress = _couponAddress;\r\n        new_coupon.value = 0;\r\n        new_coupon.owner = msg.sender;\r\n        new_coupon.keyword = _keyword;\r\n        \r\n        coupon.push(new_coupon);\r\n        Avaliable[coupons[idcoupon].couponAddress]=false;\r\n        idcoupon++;\r\n         \r\n    }\r\n    \r\n    \r\n    function useCoupon (uint _id) external isSigned {\r\n        require(msg.sender == coupons[_id].owner);\r\n        delete coupons[_id];\r\n            idcoupon--; \r\n        \r\n    }\r\n    \r\n    function removeFromMarket (uint _id) external isSigned{\r\n        require(msg.sender == coupons[_id].owner);\r\n        Avaliable[coupons[_id].couponAddress]=false;\r\n    }\r\n    \r\n    function addToMarket (uint _id) external payable isSigned{\r\n        require(msg.sender == coupons[_id].owner);\r\n        coupons[_id].value = msg.value;\r\n        Avaliable[coupons[_id].couponAddress]=true;\r\n        \r\n    }\r\n    \r\n    function getSearchAll() external isSigned{\r\n        for(uint i=0; i<idcoupon; i++){\r\n            if (Avaliable[coupons[i].couponAddress] == true){\r\n                Avaliable_Coupons.push(coupons[i]);         \r\n            }    \r\n        }\r\n        \r\n    }\r\n    \r\n     function showSearchAll () view external isSigned returns (Inventory[] memory){\r\n              \r\n        return Avaliable_Coupons;\r\n    }\r\n    \r\n    function getInventory ()  external isSigned  {\r\n        \r\n        for(uint i=0; i<idcoupon; i++){\r\n            if (coupons[i].owner == msg.sender){\r\n                couponAccts.push(coupons[i]);         \r\n            }    \r\n        }\r\n    }\r\n    \r\n    function showInventory () view external isSigned returns (Inventory[] memory){\r\n              \r\n        return couponAccts;\r\n    }\r\n        \r\n    function Buy (uint _id) external payable isSigned{\r\n        require(msg.sender != coupons[_id].owner,  \"You are Not the owner\");\r\n        require(ownerAccounts[msg.sender] >= coupons[_id].value,  \"Unsufficient Funds\");\r\n        require(Avaliable[coupons[_id].couponAddress]=true, \"Not Avaliable for Trade\");\r\n        \r\n        \r\n        ownerAccounts[msg.sender] -= coupons[_id].value;\r\n        ownerAccounts[coupons[_id].owner] += coupons[_id].value;\r\n        coupons[_id].owner = msg.sender;\r\n    }\r\n    \r\n\r\n    function Trade(uint _mycouponID, uint _wantedcouponID) external payable isSigned{\r\n        \r\n        require(msg.sender == coupons[_mycouponID].owner, \"You are Not the owner\");\r\n        require(msg.sender != coupons[_wantedcouponID].owner, \"This is your coupon\");\r\n        require (ownerAccounts[msg.sender] >= msg.value, \"Unsufficient Funds\");\r\n        require( coupons[_mycouponID].value +  msg.value == coupons[_wantedcouponID].value, \"Not enough funds\" );\r\n        require(Avaliable[coupons[_mycouponID].couponAddress]=true, \"Not Avaliable for Trade\");\r\n        require(Avaliable[coupons[_wantedcouponID].couponAddress]=true, \" Not Avaliable for Trade\");\r\n        \r\n        ownerAccounts[msg.sender] -= msg.value;\r\n        ownerAccounts[coupons[_wantedcouponID].owner] += msg.value;\r\n        \r\n        coupons[_mycouponID].owner = coupons[_wantedcouponID].owner;\r\n        coupons[_wantedcouponID].owner = msg.sender;\r\n    }\r\n    \r\n    \r\n    \r\n}\r\n   \r\n\r\n",
  "sourcePath": "C:\\Users\\Mavris\\Desktop\\uni\\semesters\\8 semester\\blockchain\\final assigment\\Coupon-Dapp\\product_modify\\product-modify\\contracts\\couponModify.sol",
  "compiler": {
    "name": "solc",
    "version": "0.5.16+commit.9c3226ce.Emscripten.clang"
  },
  "schemaVersion": "3.1.0",
  "updatedAt": "2020-08-08T16:38:15.779Z",
  "devdoc": {
    "methods": {}
  },
  "userdoc": {
    "methods": {}
  }
}