{
  "contractName": "couponModify",
  "abi": [
    {
      "constant": true,
      "inputs": [
        {
          "internalType": "uint256",
          "name": "",
          "type": "uint256"
        }
      ],
      "name": "coupons",
      "outputs": [
        {
          "internalType": "bytes",
          "name": "couponAddress",
          "type": "bytes"
        },
        {
          "internalType": "uint256",
          "name": "value",
          "type": "uint256"
        },
        {
          "internalType": "address payable",
          "name": "owner",
          "type": "address"
        },
        {
          "internalType": "string",
          "name": "keyword",
          "type": "string"
        }
      ],
      "payable": false,
      "stateMutability": "view",
      "type": "function"
    },
    {
      "constant": true,
      "inputs": [
        {
          "internalType": "address",
          "name": "",
          "type": "address"
        }
      ],
      "name": "ownerAccounts",
      "outputs": [
        {
          "internalType": "uint256",
          "name": "",
          "type": "uint256"
        }
      ],
      "payable": false,
      "stateMutability": "view",
      "type": "function"
    },
    {
      "constant": false,
      "inputs": [],
      "name": "setAccount",
      "outputs": [],
      "payable": false,
      "stateMutability": "nonpayable",
      "type": "function"
    },
    {
      "constant": true,
      "inputs": [],
      "name": "checkAccount",
      "outputs": [
        {
          "internalType": "bool",
          "name": "",
          "type": "bool"
        }
      ],
      "payable": false,
      "stateMutability": "view",
      "type": "function"
    },
    {
      "constant": false,
      "inputs": [],
      "name": "deposit",
      "outputs": [],
      "payable": true,
      "stateMutability": "payable",
      "type": "function"
    },
    {
      "constant": false,
      "inputs": [],
      "name": "withdraw",
      "outputs": [],
      "payable": true,
      "stateMutability": "payable",
      "type": "function"
    },
    {
      "constant": false,
      "inputs": [
        {
          "internalType": "bytes",
          "name": "_couponAddress",
          "type": "bytes"
        },
        {
          "internalType": "string",
          "name": "_keyword",
          "type": "string"
        }
      ],
      "name": "addNew",
      "outputs": [],
      "payable": false,
      "stateMutability": "nonpayable",
      "type": "function"
    },
    {
      "constant": false,
      "inputs": [
        {
          "internalType": "uint256",
          "name": "_id",
          "type": "uint256"
        }
      ],
      "name": "useCoupon",
      "outputs": [],
      "payable": false,
      "stateMutability": "nonpayable",
      "type": "function"
    },
    {
      "constant": false,
      "inputs": [
        {
          "internalType": "uint256",
          "name": "_id",
          "type": "uint256"
        }
      ],
      "name": "removeFromMarket",
      "outputs": [],
      "payable": false,
      "stateMutability": "nonpayable",
      "type": "function"
    },
    {
      "constant": false,
      "inputs": [
        {
          "internalType": "uint256",
          "name": "_id",
          "type": "uint256"
        }
      ],
      "name": "addToMarket",
      "outputs": [],
      "payable": true,
      "stateMutability": "payable",
      "type": "function"
    },
    {
      "constant": false,
      "inputs": [],
      "name": "getSearchAll",
      "outputs": [],
      "payable": false,
      "stateMutability": "nonpayable",
      "type": "function"
    },
    {
      "constant": true,
      "inputs": [],
      "name": "showSearchAll",
      "outputs": [
        {
          "components": [
            {
              "internalType": "bytes",
              "name": "couponAddress",
              "type": "bytes"
            },
            {
              "internalType": "uint256",
              "name": "value",
              "type": "uint256"
            },
            {
              "internalType": "address payable",
              "name": "owner",
              "type": "address"
            },
            {
              "internalType": "string",
              "name": "keyword",
              "type": "string"
            }
          ],
          "internalType": "struct couponModify.Inventory[]",
          "name": "",
          "type": "tuple[]"
        }
      ],
      "payable": false,
      "stateMutability": "view",
      "type": "function"
    },
    {
      "constant": false,
      "inputs": [],
      "name": "getInventory",
      "outputs": [],
      "payable": false,
      "stateMutability": "nonpayable",
      "type": "function"
    },
    {
      "constant": true,
      "inputs": [],
      "name": "showInventory",
      "outputs": [
        {
          "components": [
            {
              "internalType": "bytes",
              "name": "couponAddress",
              "type": "bytes"
            },
            {
              "internalType": "uint256",
              "name": "value",
              "type": "uint256"
            },
            {
              "internalType": "address payable",
              "name": "owner",
              "type": "address"
            },
            {
              "internalType": "string",
              "name": "keyword",
              "type": "string"
            }
          ],
          "internalType": "struct couponModify.Inventory[]",
          "name": "",
          "type": "tuple[]"
        }
      ],
      "payable": false,
      "stateMutability": "view",
      "type": "function"
    },
    {
      "constant": false,
      "inputs": [
        {
          "internalType": "uint256",
          "name": "_id",
          "type": "uint256"
        }
      ],
      "name": "Buy",
      "outputs": [],
      "payable": true,
      "stateMutability": "payable",
      "type": "function"
    },
    {
      "constant": false,
      "inputs": [
        {
          "internalType": "uint256",
          "name": "_mycouponID",
          "type": "uint256"
        },
        {
          "internalType": "uint256",
          "name": "_wantedcouponID",
          "type": "uint256"
        }
      ],
      "name": "Trade",
      "outputs": [],
      "payable": true,
      "stateMutability": "payable",
      "type": "function"
    }
  ],
  "bytecode": "0x6080604052600060045534801561001557600080fd5b50612e00806100256000396000f3fe6080604052600436106100f35760003560e01c80636457bd041161008a578063b8fcf5be11610059578063b8fcf5be14610297578063d0e30db0146102ae578063e8f968cd146102b8578063f641d5ec146102e1576100f3565b80636457bd04146101fe5780637dab3269146102275780638e0ab38a14610250578063b2bbef8e1461026c576100f3565b80633e328218116100c65780633e32821814610189578063469c6dbb146101a55780635c13a439146101bc5780635d7f850c146101e7576100f3565b8063169c93d1146100f857806330828e9214610114578063314563c4146101545780633ccfd60b1461017f575b600080fd5b610112600480360361010d9190810190612590565b61031e565b005b34801561012057600080fd5b5061013b60048036036101369190810190612567565b6108b4565b60405161014b9493929190612ad0565b60405180910390f35b34801561016057600080fd5b50610169610a34565b6040516101769190612a93565b60405180910390f35b610187610cca565b005b6101a3600480360361019e9190810190612567565b610df3565b005b3480156101b157600080fd5b506101ba6111a1565b005b3480156101c857600080fd5b506101d161128e565b6040516101de9190612ab5565b60405180910390f35b3480156101f357600080fd5b506101fc6112e2565b005b34801561020a57600080fd5b5061022560048036036102209190810190612567565b611504565b005b34801561023357600080fd5b5061024e60048036036102499190810190612567565b611653565b005b61026a60048036036102659190810190612567565b6117cf565b005b34801561027857600080fd5b5061028161193a565b60405161028e9190612a93565b60405180910390f35b3480156102a357600080fd5b506102ac611bd0565b005b6102b6611dd5565b005b3480156102c457600080fd5b506102df60048036036102da91908101906124f2565b611eb7565b005b3480156102ed57600080fd5b50610308600480360361030391908101906124c9565b612130565b6040516103159190612c23565b60405180910390f35b60011515600360003373ffffffffffffffffffffffffffffffffffffffff1673ffffffffffffffffffffffffffffffffffffffff16815260200190815260200160002060009054906101000a900460ff161515146103b1576040517f08c379a00000000000000000000000000000000000000000000000000000000081526004016103a890612be3565b60405180910390fd5b6001600083815260200190815260200160002060020160009054906101000a900473ffffffffffffffffffffffffffffffffffffffff1673ffffffffffffffffffffffffffffffffffffffff163373ffffffffffffffffffffffffffffffffffffffff1614610455576040517f08c379a000000000000000000000000000000000000000000000000000000000815260040161044c90612c03565b60405180910390fd5b6001600082815260200190815260200160002060020160009054906101000a900473ffffffffffffffffffffffffffffffffffffffff1673ffffffffffffffffffffffffffffffffffffffff163373ffffffffffffffffffffffffffffffffffffffff1614156104fa576040517f08c379a00000000000000000000000000000000000000000000000000000000081526004016104f190612b83565b60405180910390fd5b34600260003373ffffffffffffffffffffffffffffffffffffffff1673ffffffffffffffffffffffffffffffffffffffff16815260200190815260200160002054101561057c576040517f08c379a000000000000000000000000000000000000000000000000000000000815260040161057390612bc3565b60405180910390fd5b600160008281526020019081526020016000206001015434600160008581526020019081526020016000206001015401146105ec576040517f08c379a00000000000000000000000000000000000000000000000000000000081526004016105e390612b23565b60405180910390fd5b60016000600160008581526020019081526020016000206000016040516106139190612a7c565b908152602001604051809103902060006101000a81548160ff0219169083151502179055610676576040517f08c379a000000000000000000000000000000000000000000000000000000000815260040161066d90612b43565b60405180910390fd5b600160006001600084815260200190815260200160002060000160405161069d9190612a7c565b908152602001604051809103902060006101000a81548160ff0219169083151502179055610700576040517f08c379a00000000000000000000000000000000000000000000000000000000081526004016106f790612b63565b60405180910390fd5b34600260003373ffffffffffffffffffffffffffffffffffffffff1673ffffffffffffffffffffffffffffffffffffffff1681526020019081526020016000206000828254039250508190555034600260006001600085815260200190815260200160002060020160009054906101000a900473ffffffffffffffffffffffffffffffffffffffff1673ffffffffffffffffffffffffffffffffffffffff1673ffffffffffffffffffffffffffffffffffffffff168152602001908152602001600020600082825401925050819055506001600082815260200190815260200160002060020160009054906101000a900473ffffffffffffffffffffffffffffffffffffffff166001600084815260200190815260200160002060020160006101000a81548173ffffffffffffffffffffffffffffffffffffffff021916908373ffffffffffffffffffffffffffffffffffffffff160217905550336001600083815260200190815260200160002060020160006101000a81548173ffffffffffffffffffffffffffffffffffffffff021916908373ffffffffffffffffffffffffffffffffffffffff1602179055505050565b6001602052806000526040600020600091509050806000018054600181600116156101000203166002900480601f0160208091040260200160405190810160405280929190818152602001828054600181600116156101000203166002900480156109605780601f1061093557610100808354040283529160200191610960565b820191906000526020600020905b81548152906001019060200180831161094357829003601f168201915b5050505050908060010154908060020160009054906101000a900473ffffffffffffffffffffffffffffffffffffffff1690806003018054600181600116156101000203166002900480601f016020809104026020016040519081016040528092919081815260200182805460018160011615610100020316600290048015610a2a5780601f106109ff57610100808354040283529160200191610a2a565b820191906000526020600020905b815481529060010190602001808311610a0d57829003601f168201915b5050505050905084565b606060011515600360003373ffffffffffffffffffffffffffffffffffffffff1673ffffffffffffffffffffffffffffffffffffffff16815260200190815260200160002060009054906101000a900460ff16151514610ac9576040517f08c379a0000000000000000000000000000000000000000000000000000000008152600401610ac090612be3565b60405180910390fd5b6006805480602002602001604051908101604052809291908181526020016000905b82821015610cc15783829060005260206000209060040201604051806080016040529081600082018054600181600116156101000203166002900480601f016020809104026020016040519081016040528092919081815260200182805460018160011615610100020316600290048015610ba75780601f10610b7c57610100808354040283529160200191610ba7565b820191906000526020600020905b815481529060010190602001808311610b8a57829003601f168201915b50505050508152602001600182015481526020016002820160009054906101000a900473ffffffffffffffffffffffffffffffffffffffff1673ffffffffffffffffffffffffffffffffffffffff1673ffffffffffffffffffffffffffffffffffffffff168152602001600382018054600181600116156101000203166002900480601f016020809104026020016040519081016040528092919081815260200182805460018160011615610100020316600290048015610ca95780601f10610c7e57610100808354040283529160200191610ca9565b820191906000526020600020905b815481529060010190602001808311610c8c57829003601f168201915b50505050508152505081526020019060010190610aeb565b50505050905090565b60011515600360003373ffffffffffffffffffffffffffffffffffffffff1673ffffffffffffffffffffffffffffffffffffffff16815260200190815260200160002060009054906101000a900460ff16151514610d5d576040517f08c379a0000000000000000000000000000000000000000000000000000000008152600401610d5490612be3565b60405180910390fd5b34600260003373ffffffffffffffffffffffffffffffffffffffff1673ffffffffffffffffffffffffffffffffffffffff168152602001908152602001600020600082825403925050819055503373ffffffffffffffffffffffffffffffffffffffff166108fc349081150290604051600060405180830381858888f19350505050158015610df0573d6000803e3d6000fd5b50565b60011515600360003373ffffffffffffffffffffffffffffffffffffffff1673ffffffffffffffffffffffffffffffffffffffff16815260200190815260200160002060009054906101000a900460ff16151514610e86576040517f08c379a0000000000000000000000000000000000000000000000000000000008152600401610e7d90612be3565b60405180910390fd5b6001600082815260200190815260200160002060020160009054906101000a900473ffffffffffffffffffffffffffffffffffffffff1673ffffffffffffffffffffffffffffffffffffffff163373ffffffffffffffffffffffffffffffffffffffff161415610f2b576040517f08c379a0000000000000000000000000000000000000000000000000000000008152600401610f2290612c03565b60405180910390fd5b6001600082815260200190815260200160002060010154600260003373ffffffffffffffffffffffffffffffffffffffff1673ffffffffffffffffffffffffffffffffffffffff168152602001908152602001600020541015610fc3576040517f08c379a0000000000000000000000000000000000000000000000000000000008152600401610fba90612bc3565b60405180910390fd5b6001600060016000848152602001908152602001600020600001604051610fea9190612a7c565b908152602001604051809103902060006101000a81548160ff021916908315150217905561104d576040517f08c379a000000000000000000000000000000000000000000000000000000000815260040161104490612b43565b60405180910390fd5b6001600082815260200190815260200160002060010154600260003373ffffffffffffffffffffffffffffffffffffffff1673ffffffffffffffffffffffffffffffffffffffff168152602001908152602001600020600082825403925050819055506001600082815260200190815260200160002060010154600260006001600085815260200190815260200160002060020160009054906101000a900473ffffffffffffffffffffffffffffffffffffffff1673ffffffffffffffffffffffffffffffffffffffff1673ffffffffffffffffffffffffffffffffffffffff16815260200190815260200160002060008282540192505081905550336001600083815260200190815260200160002060020160006101000a81548173ffffffffffffffffffffffffffffffffffffffff021916908373ffffffffffffffffffffffffffffffffffffffff16021790555050565b60001515600360003373ffffffffffffffffffffffffffffffffffffffff1673ffffffffffffffffffffffffffffffffffffffff16815260200190815260200160002060009054906101000a900460ff16151514611234576040517f08c379a000000000000000000000000000000000000000000000000000000000815260040161122b90612ba3565b60405180910390fd5b6001600360003373ffffffffffffffffffffffffffffffffffffffff1673ffffffffffffffffffffffffffffffffffffffff16815260200190815260200160002060006101000a81548160ff021916908315150217905550565b6000600360003373ffffffffffffffffffffffffffffffffffffffff1673ffffffffffffffffffffffffffffffffffffffff16815260200190815260200160002060009054906101000a900460ff16905090565b60011515600360003373ffffffffffffffffffffffffffffffffffffffff1673ffffffffffffffffffffffffffffffffffffffff16815260200190815260200160002060009054906101000a900460ff16151514611375576040517f08c379a000000000000000000000000000000000000000000000000000000000815260040161136c90612be3565b60405180910390fd5b60008090505b600454811015611501573373ffffffffffffffffffffffffffffffffffffffff166001600083815260200190815260200160002060020160009054906101000a900473ffffffffffffffffffffffffffffffffffffffff1673ffffffffffffffffffffffffffffffffffffffff1614156114f4576006600160008381526020019081526020016000209080600181540180825580915050906001820390600052602060002090600402016000909192909190915060008201816000019080546001816001161561010002031660029004611456929190612148565b50600182015481600101556002820160009054906101000a900473ffffffffffffffffffffffffffffffffffffffff168160020160006101000a81548173ffffffffffffffffffffffffffffffffffffffff021916908373ffffffffffffffffffffffffffffffffffffffff160217905550600382018160030190805460018160011615610100020316600290046114ef9291906121cf565b505050505b808060010191505061137b565b50565b60011515600360003373ffffffffffffffffffffffffffffffffffffffff1673ffffffffffffffffffffffffffffffffffffffff16815260200190815260200160002060009054906101000a900460ff16151514611597576040517f08c379a000000000000000000000000000000000000000000000000000000000815260040161158e90612be3565b60405180910390fd5b6001600082815260200190815260200160002060020160009054906101000a900473ffffffffffffffffffffffffffffffffffffffff1673ffffffffffffffffffffffffffffffffffffffff163373ffffffffffffffffffffffffffffffffffffffff161461160557600080fd5b6000806001600084815260200190815260200160002060000160405161162b9190612a7c565b908152602001604051809103902060006101000a81548160ff02191690831515021790555050565b60011515600360003373ffffffffffffffffffffffffffffffffffffffff1673ffffffffffffffffffffffffffffffffffffffff16815260200190815260200160002060009054906101000a900460ff161515146116e6576040517f08c379a00000000000000000000000000000000000000000000000000000000081526004016116dd90612be3565b60405180910390fd5b6001600082815260200190815260200160002060020160009054906101000a900473ffffffffffffffffffffffffffffffffffffffff1673ffffffffffffffffffffffffffffffffffffffff163373ffffffffffffffffffffffffffffffffffffffff161461175457600080fd5b60016000828152602001908152602001600020600080820160006117789190612256565b60018201600090556002820160006101000a81549073ffffffffffffffffffffffffffffffffffffffff02191690556003820160006117b7919061229e565b50506004600081548092919060019003919050555050565b60011515600360003373ffffffffffffffffffffffffffffffffffffffff1673ffffffffffffffffffffffffffffffffffffffff16815260200190815260200160002060009054906101000a900460ff16151514611862576040517f08c379a000000000000000000000000000000000000000000000000000000000815260040161185990612be3565b60405180910390fd5b6001600082815260200190815260200160002060020160009054906101000a900473ffffffffffffffffffffffffffffffffffffffff1673ffffffffffffffffffffffffffffffffffffffff163373ffffffffffffffffffffffffffffffffffffffff16146118d057600080fd5b34600160008381526020019081526020016000206001018190555060016000600160008481526020019081526020016000206000016040516119129190612a7c565b908152602001604051809103902060006101000a81548160ff02191690831515021790555050565b606060011515600360003373ffffffffffffffffffffffffffffffffffffffff1673ffffffffffffffffffffffffffffffffffffffff16815260200190815260200160002060009054906101000a900460ff161515146119cf576040517f08c379a00000000000000000000000000000000000000000000000000000000081526004016119c690612be3565b60405180910390fd5b6007805480602002602001604051908101604052809291908181526020016000905b82821015611bc75783829060005260206000209060040201604051806080016040529081600082018054600181600116156101000203166002900480601f016020809104026020016040519081016040528092919081815260200182805460018160011615610100020316600290048015611aad5780601f10611a8257610100808354040283529160200191611aad565b820191906000526020600020905b815481529060010190602001808311611a9057829003601f168201915b50505050508152602001600182015481526020016002820160009054906101000a900473ffffffffffffffffffffffffffffffffffffffff1673ffffffffffffffffffffffffffffffffffffffff1673ffffffffffffffffffffffffffffffffffffffff168152602001600382018054600181600116156101000203166002900480601f016020809104026020016040519081016040528092919081815260200182805460018160011615610100020316600290048015611baf5780601f10611b8457610100808354040283529160200191611baf565b820191906000526020600020905b815481529060010190602001808311611b9257829003601f168201915b505050505081525050815260200190600101906119f1565b50505050905090565b60011515600360003373ffffffffffffffffffffffffffffffffffffffff1673ffffffffffffffffffffffffffffffffffffffff16815260200190815260200160002060009054906101000a900460ff16151514611c63576040517f08c379a0000000000000000000000000000000000000000000000000000000008152600401611c5a90612be3565b60405180910390fd5b60008090505b600454811015611dd25760011515600060016000848152602001908152602001600020600001604051611c9c9190612a7c565b908152602001604051809103902060009054906101000a900460ff1615151415611dc5576007600160008381526020019081526020016000209080600181540180825580915050906001820390600052602060002090600402016000909192909190915060008201816000019080546001816001161561010002031660029004611d27929190612148565b50600182015481600101556002820160009054906101000a900473ffffffffffffffffffffffffffffffffffffffff168160020160006101000a81548173ffffffffffffffffffffffffffffffffffffffff021916908373ffffffffffffffffffffffffffffffffffffffff16021790555060038201816003019080546001816001161561010002031660029004611dc09291906121cf565b505050505b8080600101915050611c69565b50565b60011515600360003373ffffffffffffffffffffffffffffffffffffffff1673ffffffffffffffffffffffffffffffffffffffff16815260200190815260200160002060009054906101000a900460ff16151514611e68576040517f08c379a0000000000000000000000000000000000000000000000000000000008152600401611e5f90612be3565b60405180910390fd5b34600260003373ffffffffffffffffffffffffffffffffffffffff1673ffffffffffffffffffffffffffffffffffffffff16815260200190815260200160002060008282540192505081905550565b60011515600360003373ffffffffffffffffffffffffffffffffffffffff1673ffffffffffffffffffffffffffffffffffffffff16815260200190815260200160002060009054906101000a900460ff16151514611f4a576040517f08c379a0000000000000000000000000000000000000000000000000000000008152600401611f4190612be3565b60405180910390fd5b600060016000600454815260200190815260200160002090508484826000019190611f769291906122e6565b5060008160010181905550338160020160006101000a81548173ffffffffffffffffffffffffffffffffffffffff021916908373ffffffffffffffffffffffffffffffffffffffff1602179055508282826003019190611fd7929190612366565b50600581908060018154018082558091505090600182039060005260206000209060040201600090919290919091506000820181600001908054600181600116156101000203166002900461202d929190612148565b50600182015481600101556002820160009054906101000a900473ffffffffffffffffffffffffffffffffffffffff168160020160006101000a81548173ffffffffffffffffffffffffffffffffffffffff021916908373ffffffffffffffffffffffffffffffffffffffff160217905550600382018160030190805460018160011615610100020316600290046120c69291906121cf565b505050506000806001600060045481526020019081526020016000206000016040516120f29190612a7c565b908152602001604051809103902060006101000a81548160ff0219169083151502179055506004600081548092919060010191905055505050505050565b60026020528060005260406000206000915090505481565b828054600181600116156101000203166002900490600052602060002090601f016020900481019282601f1061218157805485556121be565b828001600101855582156121be57600052602060002091601f016020900482015b828111156121bd5782548255916001019190600101906121a2565b5b5090506121cb91906123e6565b5090565b828054600181600116156101000203166002900490600052602060002090601f016020900481019282601f106122085780548555612245565b8280016001018555821561224557600052602060002091601f016020900482015b82811115612244578254825591600101919060010190612229565b5b50905061225291906123e6565b5090565b50805460018160011615610100020316600290046000825580601f1061227c575061229b565b601f01602090049060005260206000209081019061229a91906123e6565b5b50565b50805460018160011615610100020316600290046000825580601f106122c457506122e3565b601f0160209004906000526020600020908101906122e291906123e6565b5b50565b828054600181600116156101000203166002900490600052602060002090601f016020900481019282601f1061232757803560ff1916838001178555612355565b82800160010185558215612355579182015b82811115612354578235825591602001919060010190612339565b5b50905061236291906123e6565b5090565b828054600181600116156101000203166002900490600052602060002090601f016020900481019282601f106123a757803560ff19168380011785556123d5565b828001600101855582156123d5579182015b828111156123d45782358255916020019190600101906123b9565b5b5090506123e291906123e6565b5090565b61240891905b808211156124045760008160009055506001016123ec565b5090565b90565b60008135905061241a81612d8f565b92915050565b60008083601f84011261243257600080fd5b8235905067ffffffffffffffff81111561244b57600080fd5b60208301915083600182028301111561246357600080fd5b9250929050565b60008083601f84011261247c57600080fd5b8235905067ffffffffffffffff81111561249557600080fd5b6020830191508360018202830111156124ad57600080fd5b9250929050565b6000813590506124c381612da6565b92915050565b6000602082840312156124db57600080fd5b60006124e98482850161240b565b91505092915050565b6000806000806040858703121561250857600080fd5b600085013567ffffffffffffffff81111561252257600080fd5b61252e87828801612420565b9450945050602085013567ffffffffffffffff81111561254d57600080fd5b6125598782880161246a565b925092505092959194509250565b60006020828403121561257957600080fd5b6000612587848285016124b4565b91505092915050565b600080604083850312156125a357600080fd5b60006125b1858286016124b4565b92505060206125c2858286016124b4565b9150509250929050565b60006125d883836129f4565b905092915050565b6125e981612d03565b82525050565b6125f881612d03565b82525050565b600061260982612c63565b6126138185612c91565b93508360208202850161262585612c3e565b8060005b85811015612661578484038952815161264285826125cc565b945061264d83612c84565b925060208a01995050600181019050612629565b50829750879550505050505092915050565b61267c81612d15565b82525050565b600061268d82612c6e565b6126978185612ca2565b93506126a7818560208601612d4b565b6126b081612d7e565b840191505092915050565b60006126c682612c6e565b6126d08185612cb3565b93506126e0818560208601612d4b565b6126e981612d7e565b840191505092915050565b60008154600181166000811461271157600181146127365761277a565b607f60028304166127228187612cc4565b955060ff198316865280860193505061277a565b600282046127448187612cc4565b955061274f85612c4e565b60005b8281101561277157815481890152600182019150602081019050612752565b82880195505050505b505092915050565b600061278d82612c79565b6127978185612ccf565b93506127a7818560208601612d4b565b6127b081612d7e565b840191505092915050565b60006127c682612c79565b6127d08185612ce0565b93506127e0818560208601612d4b565b6127e981612d7e565b840191505092915050565b6000612801601083612ce0565b91507f4e6f7420656e6f7567682066756e6473000000000000000000000000000000006000830152602082019050919050565b6000612841601783612ce0565b91507f4e6f74204176616c6961626c6520666f722054726164650000000000000000006000830152602082019050919050565b6000612881601883612ce0565b91507f204e6f74204176616c6961626c6520666f7220547261646500000000000000006000830152602082019050919050565b60006128c1601383612ce0565b91507f5468697320697320796f757220636f75706f6e000000000000000000000000006000830152602082019050919050565b6000612901601c83612ce0565b91507f596f7520616c7265616479206861766520616e206163636f756e7421000000006000830152602082019050919050565b6000612941601283612ce0565b91507f556e73756666696369656e742046756e647300000000000000000000000000006000830152602082019050919050565b6000612981601e83612ce0565b91507f5573657220646f6573206e6f7420206861766520616e206163636f756e7400006000830152602082019050919050565b60006129c1601583612ce0565b91507f596f7520617265204e6f7420746865206f776e657200000000000000000000006000830152602082019050919050565b60006080830160008301518482036000860152612a118282612682565b9150506020830151612a266020860182612a5e565b506040830151612a3960408601826125e0565b5060608301518482036060860152612a518282612782565b9150508091505092915050565b612a6781612d41565b82525050565b612a7681612d41565b82525050565b6000612a8882846126f4565b915081905092915050565b60006020820190508181036000830152612aad81846125fe565b905092915050565b6000602082019050612aca6000830184612673565b92915050565b60006080820190508181036000830152612aea81876126bb565b9050612af96020830186612a6d565b612b0660408301856125ef565b8181036060830152612b1881846127bb565b905095945050505050565b60006020820190508181036000830152612b3c816127f4565b9050919050565b60006020820190508181036000830152612b5c81612834565b9050919050565b60006020820190508181036000830152612b7c81612874565b9050919050565b60006020820190508181036000830152612b9c816128b4565b9050919050565b60006020820190508181036000830152612bbc816128f4565b9050919050565b60006020820190508181036000830152612bdc81612934565b9050919050565b60006020820190508181036000830152612bfc81612974565b9050919050565b60006020820190508181036000830152612c1c816129b4565b9050919050565b6000602082019050612c386000830184612a6d565b92915050565b6000819050602082019050919050565b60008190508160005260206000209050919050565b600081519050919050565b600081519050919050565b600081519050919050565b6000602082019050919050565b600082825260208201905092915050565b600082825260208201905092915050565b600082825260208201905092915050565b600081905092915050565b600082825260208201905092915050565b600082825260208201905092915050565b6000612cfc82612d21565b9050919050565b6000612d0e82612d21565b9050919050565b60008115159050919050565b600073ffffffffffffffffffffffffffffffffffffffff82169050919050565b6000819050919050565b60005b83811015612d69578082015181840152602081019050612d4e565b83811115612d78576000848401525b50505050565b6000601f19601f8301169050919050565b612d9881612cf1565b8114612da357600080fd5b50565b612daf81612d41565b8114612dba57600080fd5b5056fea365627a7a72315820b590097aa3c85994e087967f2b8c0808217771161eeed2814e87232bf4d7b40f6c6578706572696d656e74616cf564736f6c63430005100040",
  "source": "pragma experimental ABIEncoderV2; \r\n\r\npragma solidity >0.5.2;\r\n\r\ncontract couponModify{\r\n \r\n   \r\n    mapping(bytes => bool)internal Avaliable;\r\n    mapping(uint => Inventory) public coupons;\r\n    mapping(address => uint) public ownerAccounts;\r\n    mapping(address => bool)internal hasSigned;\r\n    uint idcoupon=0;\r\n    \r\n    struct Inventory{\r\n        bytes couponAddress;\r\n        uint value;                 //price of coupon \r\n        address payable owner;\r\n        string keyword;\r\n    }\r\n    \r\n    \r\n    Inventory[] internal coupon;\r\n    Inventory[] internal couponAccts;\r\n    Inventory[] internal Avaliable_Coupons;\r\n    \r\n    modifier isSigned(){\r\n        require (hasSigned[msg.sender] == true, \"User does not  have an account\");\r\n        _;\r\n    }\r\n    \r\n    function setAccount () external {\r\n        require (hasSigned[msg.sender] == false, \"You already have an account!\");\r\n        hasSigned[msg.sender] = true;\r\n       \r\n    }\r\n   \r\n   function checkAccount () view external returns (bool){\r\n        return(hasSigned[msg.sender]);\r\n   }\r\n   \r\n    function deposit () external payable isSigned {\r\n        ownerAccounts[msg.sender] += msg.value;\r\n    }\r\n    function withdraw () external payable isSigned {\r\n        ownerAccounts[msg.sender] -= msg.value;\r\n        msg.sender.transfer(msg.value);\r\n    }\r\n    \r\n     function addNew(bytes calldata _couponAddress, string calldata _keyword) external isSigned  {\r\n        Inventory storage new_coupon = coupons[idcoupon];\r\n        new_coupon.couponAddress = _couponAddress;\r\n        new_coupon.value = 0;\r\n        new_coupon.owner = msg.sender;\r\n        new_coupon.keyword = _keyword;\r\n        \r\n        coupon.push(new_coupon);\r\n        Avaliable[coupons[idcoupon].couponAddress]=false;\r\n        idcoupon++;\r\n         \r\n    }\r\n    \r\n    \r\n    function useCoupon (uint _id) external isSigned {\r\n        require(msg.sender == coupons[_id].owner);\r\n        delete coupons[_id];\r\n            idcoupon--; \r\n        \r\n    }\r\n    \r\n    function removeFromMarket (uint _id) external isSigned{\r\n        require(msg.sender == coupons[_id].owner);\r\n        Avaliable[coupons[_id].couponAddress]=false;\r\n    }\r\n    \r\n    function addToMarket (uint _id) external payable isSigned{\r\n        require(msg.sender == coupons[_id].owner);\r\n        coupons[_id].value = msg.value;\r\n        Avaliable[coupons[_id].couponAddress]=true;\r\n        \r\n    }\r\n    \r\n    function getSearchAll() external isSigned{\r\n        for(uint i=0; i<idcoupon; i++){\r\n            if (Avaliable[coupons[i].couponAddress] == true){\r\n                Avaliable_Coupons.push(coupons[i]);         \r\n            }    \r\n        }\r\n        \r\n    }\r\n    \r\n     function showSearchAll () view external isSigned returns (Inventory[] memory){\r\n              \r\n        return Avaliable_Coupons;\r\n    }\r\n    \r\n    function getInventory ()  external isSigned  {\r\n        \r\n        for(uint i=0; i<idcoupon; i++){\r\n            if (coupons[i].owner == msg.sender){\r\n                couponAccts.push(coupons[i]);         \r\n            }    \r\n        }\r\n    }\r\n    \r\n    function showInventory () view external isSigned returns (Inventory[] memory){\r\n              \r\n        return couponAccts;\r\n    }\r\n        \r\n    function Buy (uint _id) external payable isSigned{\r\n        require(msg.sender != coupons[_id].owner,  \"You are Not the owner\");\r\n        require(ownerAccounts[msg.sender] >= coupons[_id].value,  \"Unsufficient Funds\");\r\n        require(Avaliable[coupons[_id].couponAddress]=true, \"Not Avaliable for Trade\");\r\n        \r\n        \r\n        ownerAccounts[msg.sender] -= coupons[_id].value;\r\n        ownerAccounts[coupons[_id].owner] += coupons[_id].value;\r\n        coupons[_id].owner = msg.sender;\r\n    }\r\n    \r\n\r\n    function Trade(uint _mycouponID, uint _wantedcouponID) external payable isSigned{\r\n        \r\n        require(msg.sender == coupons[_mycouponID].owner, \"You are Not the owner\");\r\n        require(msg.sender != coupons[_wantedcouponID].owner, \"This is your coupon\");\r\n        require (ownerAccounts[msg.sender] >= msg.value, \"Unsufficient Funds\");\r\n        require( coupons[_mycouponID].value +  msg.value == coupons[_wantedcouponID].value, \"Not enough funds\" );\r\n        require(Avaliable[coupons[_mycouponID].couponAddress]=true, \"Not Avaliable for Trade\");\r\n        require(Avaliable[coupons[_wantedcouponID].couponAddress]=true, \" Not Avaliable for Trade\");\r\n        \r\n        ownerAccounts[msg.sender] -= msg.value;\r\n        ownerAccounts[coupons[_wantedcouponID].owner] += msg.value;\r\n        \r\n        coupons[_mycouponID].owner = coupons[_wantedcouponID].owner;\r\n        coupons[_wantedcouponID].owner = msg.sender;\r\n    }\r\n    \r\n    \r\n    \r\n}\r\n   \r\n\r\n",
  "sourcePath": "C:\\Users\\Mavris\\Desktop\\uni\\semesters\\8 semester\\blockchain\\final assigment\\Coupon-Dapp\\product_modify\\product-modify\\contracts\\couponModify.sol",
  "compiler": {
    "name": "solc",
    "version": "0.5.16+commit.9c3226ce.Emscripten.clang"
  },
  "schemaVersion": "3.1.0",
  "updatedAt": "2020-08-08T16:53:18.026Z",
  "devdoc": {
    "methods": {}
  },
  "userdoc": {
    "methods": {}
  }
}