{
  "contractName": "couponModify",
  "abi": [
    {
      "constant": true,
      "inputs": [
        {
          "internalType": "uint256",
          "name": "",
          "type": "uint256"
        }
      ],
      "name": "coupons",
      "outputs": [
        {
          "internalType": "address",
          "name": "couponAddress",
          "type": "address"
        },
        {
          "internalType": "uint256",
          "name": "value",
          "type": "uint256"
        },
        {
          "internalType": "address payable",
          "name": "owner",
          "type": "address"
        },
        {
          "internalType": "string",
          "name": "keyword",
          "type": "string"
        }
      ],
      "payable": false,
      "stateMutability": "view",
      "type": "function"
    },
    {
      "constant": true,
      "inputs": [
        {
          "internalType": "address",
          "name": "",
          "type": "address"
        }
      ],
      "name": "ownerAccounts",
      "outputs": [
        {
          "internalType": "uint256",
          "name": "",
          "type": "uint256"
        }
      ],
      "payable": false,
      "stateMutability": "view",
      "type": "function"
    },
    {
      "constant": false,
      "inputs": [],
      "name": "setAccount",
      "outputs": [],
      "payable": false,
      "stateMutability": "nonpayable",
      "type": "function"
    },
    {
      "constant": true,
      "inputs": [],
      "name": "checkAccount",
      "outputs": [
        {
          "internalType": "bool",
          "name": "",
          "type": "bool"
        }
      ],
      "payable": false,
      "stateMutability": "view",
      "type": "function"
    },
    {
      "constant": false,
      "inputs": [],
      "name": "deposit",
      "outputs": [],
      "payable": true,
      "stateMutability": "payable",
      "type": "function"
    },
    {
      "constant": false,
      "inputs": [],
      "name": "withdraw",
      "outputs": [],
      "payable": true,
      "stateMutability": "payable",
      "type": "function"
    },
    {
      "constant": false,
      "inputs": [
        {
          "internalType": "address",
          "name": "_couponAddress",
          "type": "address"
        },
        {
          "internalType": "string",
          "name": "_keyword",
          "type": "string"
        }
      ],
      "name": "addNew",
      "outputs": [],
      "payable": false,
      "stateMutability": "nonpayable",
      "type": "function"
    },
    {
      "constant": false,
      "inputs": [
        {
          "internalType": "uint256",
          "name": "_id",
          "type": "uint256"
        }
      ],
      "name": "UseCoupon",
      "outputs": [],
      "payable": false,
      "stateMutability": "nonpayable",
      "type": "function"
    },
    {
      "constant": false,
      "inputs": [
        {
          "internalType": "uint256",
          "name": "_id",
          "type": "uint256"
        }
      ],
      "name": "Remove_from_Market",
      "outputs": [],
      "payable": false,
      "stateMutability": "nonpayable",
      "type": "function"
    },
    {
      "constant": false,
      "inputs": [
        {
          "internalType": "uint256",
          "name": "_id",
          "type": "uint256"
        }
      ],
      "name": "Add_to_Market",
      "outputs": [],
      "payable": true,
      "stateMutability": "payable",
      "type": "function"
    },
    {
      "constant": false,
      "inputs": [],
      "name": "getSearchAll",
      "outputs": [],
      "payable": false,
      "stateMutability": "nonpayable",
      "type": "function"
    },
    {
      "constant": true,
      "inputs": [],
      "name": "showSearchAll",
      "outputs": [
        {
          "internalType": "address[]",
          "name": "",
          "type": "address[]"
        }
      ],
      "payable": false,
      "stateMutability": "view",
      "type": "function"
    },
    {
      "constant": false,
      "inputs": [],
      "name": "getInventory",
      "outputs": [],
      "payable": false,
      "stateMutability": "nonpayable",
      "type": "function"
    },
    {
      "constant": true,
      "inputs": [],
      "name": "showInventory",
      "outputs": [
        {
          "internalType": "address[]",
          "name": "",
          "type": "address[]"
        }
      ],
      "payable": false,
      "stateMutability": "view",
      "type": "function"
    },
    {
      "constant": false,
      "inputs": [
        {
          "internalType": "uint256",
          "name": "_id",
          "type": "uint256"
        }
      ],
      "name": "Buy",
      "outputs": [],
      "payable": true,
      "stateMutability": "payable",
      "type": "function"
    },
    {
      "constant": false,
      "inputs": [
        {
          "internalType": "uint256",
          "name": "_mycouponID",
          "type": "uint256"
        },
        {
          "internalType": "uint256",
          "name": "_wantedcouponID",
          "type": "uint256"
        }
      ],
      "name": "Trade",
      "outputs": [],
      "payable": true,
      "stateMutability": "payable",
      "type": "function"
    }
  ],
  "bytecode": "0x6080604052600060045534801561001557600080fd5b506128a4806100256000396000f3fe6080604052600436106100f35760003560e01c80635d7f850c1161008a578063b8fcf5be11610059578063b8fcf5be146104cd578063d0e30db0146104e4578063f578016e146104ee578063f641d5ec14610529576100f3565b80635d7f850c146103e1578063651b64d5146103f85780638fdf8ec614610433578063b2bbef8e14610461576100f3565b80633ccfd60b116100c65780633ccfd60b146103635780633e3282181461036d578063469c6dbb1461039b5780635c13a439146103b2576100f3565b8063169c93d1146100f857806330828e9214610130578063314563c4146102515780633709858a146102bd575b600080fd5b61012e6004803603604081101561010e57600080fd5b81019080803590602001909291908035906020019092919050505061058e565b005b34801561013c57600080fd5b506101696004803603602081101561015357600080fd5b8101908080359060200190929190505050610d0b565b604051808573ffffffffffffffffffffffffffffffffffffffff1673ffffffffffffffffffffffffffffffffffffffff1681526020018481526020018373ffffffffffffffffffffffffffffffffffffffff1673ffffffffffffffffffffffffffffffffffffffff16815260200180602001828103825283818151815260200191508051906020019080838360005b838110156102135780820151818401526020810190506101f8565b50505050905090810190601f1680156102405780820380516001836020036101000a031916815260200191505b509550505050505060405180910390f35b34801561025d57600080fd5b50610266610e13565b6040518080602001828103825283818151815260200191508051906020019060200280838360005b838110156102a957808201518184015260208101905061028e565b505050509050019250505060405180910390f35b3480156102c957600080fd5b50610361600480360360408110156102e057600080fd5b81019080803573ffffffffffffffffffffffffffffffffffffffff1690602001909291908035906020019064010000000081111561031d57600080fd5b82018360208201111561032f57600080fd5b8035906020019184600183028401116401000000008311171561035157600080fd5b9091929391929390505050610f67565b005b61036b6112c2565b005b6103996004803603602081101561038357600080fd5b810190808035906020019092919050505061141e565b005b3480156103a757600080fd5b506103b06118d9565b005b3480156103be57600080fd5b506103c76119f9565b604051808215151515815260200191505060405180910390f35b3480156103ed57600080fd5b506103f6611b13565b005b34801561040457600080fd5b506104316004803603602081101561041b57600080fd5b8101908080359060200190929190505050611d00565b005b61045f6004803603602081101561044957600080fd5b8101908080359060200190929190505050611ec4565b005b34801561046d57600080fd5b506104766120a3565b6040518080602001828103825283818151815260200191508051906020019060200280838360005b838110156104b957808201518184015260208101905061049e565b505050509050019250505060405180910390f35b3480156104d957600080fd5b506104e26121f7565b005b6104ec612408565b005b3480156104fa57600080fd5b506105276004803603602081101561051157600080fd5b810190808035906020019092919050505061251d565b005b34801561053557600080fd5b506105786004803603602081101561054c57600080fd5b81019080803573ffffffffffffffffffffffffffffffffffffffff1690602001909291905050506126e3565b6040518082815260200191505060405180910390f35b60011515600360003373ffffffffffffffffffffffffffffffffffffffff1673ffffffffffffffffffffffffffffffffffffffff16815260200190815260200160002060009054906101000a900460ff16151514610654576040517f08c379a000000000000000000000000000000000000000000000000000000000815260040180806020018281038252601e8152602001807f5573657220646f6573206e6f7420206861766520616e206163636f756e74000081525060200191505060405180910390fd5b6001600083815260200190815260200160002060020160009054906101000a900473ffffffffffffffffffffffffffffffffffffffff1673ffffffffffffffffffffffffffffffffffffffff163373ffffffffffffffffffffffffffffffffffffffff161461072b576040517f08c379a00000000000000000000000000000000000000000000000000000000081526004018080602001828103825260158152602001807f596f7520617265204e6f7420746865206f776e6572000000000000000000000081525060200191505060405180910390fd5b6001600082815260200190815260200160002060020160009054906101000a900473ffffffffffffffffffffffffffffffffffffffff1673ffffffffffffffffffffffffffffffffffffffff163373ffffffffffffffffffffffffffffffffffffffff161415610803576040517f08c379a00000000000000000000000000000000000000000000000000000000081526004018080602001828103825260138152602001807f5468697320697320796f757220636f75706f6e0000000000000000000000000081525060200191505060405180910390fd5b34600260003373ffffffffffffffffffffffffffffffffffffffff1673ffffffffffffffffffffffffffffffffffffffff1681526020019081526020016000205410156108b8576040517f08c379a00000000000000000000000000000000000000000000000000000000081526004018080602001828103825260128152602001807f556e73756666696369656e742046756e6473000000000000000000000000000081525060200191505060405180910390fd5b6001600082815260200190815260200160002060010154346001600085815260200190815260200160002060010154011461095b576040517f08c379a00000000000000000000000000000000000000000000000000000000081526004018080602001828103825260108152602001807f4e6f7420656e6f7567682066756e64730000000000000000000000000000000081525060200191505060405180910390fd5b60016000806001600086815260200190815260200160002060000160009054906101000a900473ffffffffffffffffffffffffffffffffffffffff1673ffffffffffffffffffffffffffffffffffffffff1673ffffffffffffffffffffffffffffffffffffffff16815260200190815260200160002060006101000a81548160ff0219169083151502179055610a59576040517f08c379a00000000000000000000000000000000000000000000000000000000081526004018080602001828103825260178152602001807f4e6f74204176616c6961626c6520666f7220547261646500000000000000000081525060200191505060405180910390fd5b60016000806001600085815260200190815260200160002060000160009054906101000a900473ffffffffffffffffffffffffffffffffffffffff1673ffffffffffffffffffffffffffffffffffffffff1673ffffffffffffffffffffffffffffffffffffffff16815260200190815260200160002060006101000a81548160ff0219169083151502179055610b57576040517f08c379a00000000000000000000000000000000000000000000000000000000081526004018080602001828103825260188152602001807f204e6f74204176616c6961626c6520666f72205472616465000000000000000081525060200191505060405180910390fd5b34600260003373ffffffffffffffffffffffffffffffffffffffff1673ffffffffffffffffffffffffffffffffffffffff1681526020019081526020016000206000828254039250508190555034600260006001600085815260200190815260200160002060020160009054906101000a900473ffffffffffffffffffffffffffffffffffffffff1673ffffffffffffffffffffffffffffffffffffffff1673ffffffffffffffffffffffffffffffffffffffff168152602001908152602001600020600082825401925050819055506001600082815260200190815260200160002060020160009054906101000a900473ffffffffffffffffffffffffffffffffffffffff166001600084815260200190815260200160002060020160006101000a81548173ffffffffffffffffffffffffffffffffffffffff021916908373ffffffffffffffffffffffffffffffffffffffff160217905550336001600083815260200190815260200160002060020160006101000a81548173ffffffffffffffffffffffffffffffffffffffff021916908373ffffffffffffffffffffffffffffffffffffffff1602179055505050565b60016020528060005260406000206000915090508060000160009054906101000a900473ffffffffffffffffffffffffffffffffffffffff16908060010154908060020160009054906101000a900473ffffffffffffffffffffffffffffffffffffffff1690806003018054600181600116156101000203166002900480601f016020809104026020016040519081016040528092919081815260200182805460018160011615610100020316600290048015610e095780601f10610dde57610100808354040283529160200191610e09565b820191906000526020600020905b815481529060010190602001808311610dec57829003601f168201915b5050505050905084565b606060011515600360003373ffffffffffffffffffffffffffffffffffffffff1673ffffffffffffffffffffffffffffffffffffffff16815260200190815260200160002060009054906101000a900460ff16151514610edb576040517f08c379a000000000000000000000000000000000000000000000000000000000815260040180806020018281038252601e8152602001807f5573657220646f6573206e6f7420206861766520616e206163636f756e74000081525060200191505060405180910390fd5b6006805480602002602001604051908101604052809291908181526020018280548015610f5d57602002820191906000526020600020905b8160009054906101000a900473ffffffffffffffffffffffffffffffffffffffff1673ffffffffffffffffffffffffffffffffffffffff1681526020019060010190808311610f13575b5050505050905090565b60011515600360003373ffffffffffffffffffffffffffffffffffffffff1673ffffffffffffffffffffffffffffffffffffffff16815260200190815260200160002060009054906101000a900460ff1615151461102d576040517f08c379a000000000000000000000000000000000000000000000000000000000815260040180806020018281038252601e8152602001807f5573657220646f6573206e6f7420206861766520616e206163636f756e74000081525060200191505060405180910390fd5b60006001600060045481526020019081526020016000209050838160000160006101000a81548173ffffffffffffffffffffffffffffffffffffffff021916908373ffffffffffffffffffffffffffffffffffffffff16021790555060008160010181905550338160020160006101000a81548173ffffffffffffffffffffffffffffffffffffffff021916908373ffffffffffffffffffffffffffffffffffffffff16021790555082828260030191906110e99291906126fb565b50600581908060018154018082558091505090600182039060005260206000209060040201600090919290919091506000820160009054906101000a900473ffffffffffffffffffffffffffffffffffffffff168160000160006101000a81548173ffffffffffffffffffffffffffffffffffffffff021916908373ffffffffffffffffffffffffffffffffffffffff160217905550600182015481600101556002820160009054906101000a900473ffffffffffffffffffffffffffffffffffffffff168160020160006101000a81548173ffffffffffffffffffffffffffffffffffffffff021916908373ffffffffffffffffffffffffffffffffffffffff1602179055506003820181600301908054600181600116156101000203166002900461121792919061277b565b50505050600080600060016000600454815260200190815260200160002060000160009054906101000a900473ffffffffffffffffffffffffffffffffffffffff1673ffffffffffffffffffffffffffffffffffffffff1673ffffffffffffffffffffffffffffffffffffffff16815260200190815260200160002060006101000a81548160ff02191690831515021790555060046000815480929190600101919050555050505050565b60011515600360003373ffffffffffffffffffffffffffffffffffffffff1673ffffffffffffffffffffffffffffffffffffffff16815260200190815260200160002060009054906101000a900460ff16151514611388576040517f08c379a000000000000000000000000000000000000000000000000000000000815260040180806020018281038252601e8152602001807f5573657220646f6573206e6f7420206861766520616e206163636f756e74000081525060200191505060405180910390fd5b34600260003373ffffffffffffffffffffffffffffffffffffffff1673ffffffffffffffffffffffffffffffffffffffff168152602001908152602001600020600082825403925050819055503373ffffffffffffffffffffffffffffffffffffffff166108fc349081150290604051600060405180830381858888f1935050505015801561141b573d6000803e3d6000fd5b50565b60011515600360003373ffffffffffffffffffffffffffffffffffffffff1673ffffffffffffffffffffffffffffffffffffffff16815260200190815260200160002060009054906101000a900460ff161515146114e4576040517f08c379a000000000000000000000000000000000000000000000000000000000815260040180806020018281038252601e8152602001807f5573657220646f6573206e6f7420206861766520616e206163636f756e74000081525060200191505060405180910390fd5b6001600082815260200190815260200160002060020160009054906101000a900473ffffffffffffffffffffffffffffffffffffffff1673ffffffffffffffffffffffffffffffffffffffff163373ffffffffffffffffffffffffffffffffffffffff1614156115bc576040517f08c379a00000000000000000000000000000000000000000000000000000000081526004018080602001828103825260158152602001807f596f7520617265204e6f7420746865206f776e6572000000000000000000000081525060200191505060405180910390fd5b6001600082815260200190815260200160002060010154600260003373ffffffffffffffffffffffffffffffffffffffff1673ffffffffffffffffffffffffffffffffffffffff168152602001908152602001600020541015611687576040517f08c379a00000000000000000000000000000000000000000000000000000000081526004018080602001828103825260128152602001807f556e73756666696369656e742046756e6473000000000000000000000000000081525060200191505060405180910390fd5b60016000806001600085815260200190815260200160002060000160009054906101000a900473ffffffffffffffffffffffffffffffffffffffff1673ffffffffffffffffffffffffffffffffffffffff1673ffffffffffffffffffffffffffffffffffffffff16815260200190815260200160002060006101000a81548160ff0219169083151502179055611785576040517f08c379a00000000000000000000000000000000000000000000000000000000081526004018080602001828103825260178152602001807f4e6f74204176616c6961626c6520666f7220547261646500000000000000000081525060200191505060405180910390fd5b6001600082815260200190815260200160002060010154600260003373ffffffffffffffffffffffffffffffffffffffff1673ffffffffffffffffffffffffffffffffffffffff168152602001908152602001600020600082825403925050819055506001600082815260200190815260200160002060010154600260006001600085815260200190815260200160002060020160009054906101000a900473ffffffffffffffffffffffffffffffffffffffff1673ffffffffffffffffffffffffffffffffffffffff1673ffffffffffffffffffffffffffffffffffffffff16815260200190815260200160002060008282540192505081905550336001600083815260200190815260200160002060020160006101000a81548173ffffffffffffffffffffffffffffffffffffffff021916908373ffffffffffffffffffffffffffffffffffffffff16021790555050565b60001515600360003373ffffffffffffffffffffffffffffffffffffffff1673ffffffffffffffffffffffffffffffffffffffff16815260200190815260200160002060009054906101000a900460ff1615151461199f576040517f08c379a000000000000000000000000000000000000000000000000000000000815260040180806020018281038252601c8152602001807f596f7520616c7265616479206861766520616e206163636f756e74210000000081525060200191505060405180910390fd5b6001600360003373ffffffffffffffffffffffffffffffffffffffff1673ffffffffffffffffffffffffffffffffffffffff16815260200190815260200160002060006101000a81548160ff021916908315150217905550565b600060011515600360003373ffffffffffffffffffffffffffffffffffffffff1673ffffffffffffffffffffffffffffffffffffffff16815260200190815260200160002060009054906101000a900460ff16151514611ac1576040517f08c379a000000000000000000000000000000000000000000000000000000000815260040180806020018281038252601a8152602001807f596f7520646f6e2774206861766520616e206163636f756e742e00000000000081525060200191505060405180910390fd5b600360003373ffffffffffffffffffffffffffffffffffffffff1673ffffffffffffffffffffffffffffffffffffffff16815260200190815260200160002060009054906101000a900460ff16905090565b60011515600360003373ffffffffffffffffffffffffffffffffffffffff1673ffffffffffffffffffffffffffffffffffffffff16815260200190815260200160002060009054906101000a900460ff16151514611bd9576040517f08c379a000000000000000000000000000000000000000000000000000000000815260040180806020018281038252601e8152602001807f5573657220646f6573206e6f7420206861766520616e206163636f756e74000081525060200191505060405180910390fd5b60008090505b600454811015611cfd573373ffffffffffffffffffffffffffffffffffffffff166001600083815260200190815260200160002060020160009054906101000a900473ffffffffffffffffffffffffffffffffffffffff1673ffffffffffffffffffffffffffffffffffffffff161415611cf05760066001600083815260200190815260200160002060000160009054906101000a900473ffffffffffffffffffffffffffffffffffffffff1690806001815401808255809150509060018203906000526020600020016000909192909190916101000a81548173ffffffffffffffffffffffffffffffffffffffff021916908373ffffffffffffffffffffffffffffffffffffffff160217905550505b8080600101915050611bdf565b50565b60011515600360003373ffffffffffffffffffffffffffffffffffffffff1673ffffffffffffffffffffffffffffffffffffffff16815260200190815260200160002060009054906101000a900460ff16151514611dc6576040517f08c379a000000000000000000000000000000000000000000000000000000000815260040180806020018281038252601e8152602001807f5573657220646f6573206e6f7420206861766520616e206163636f756e74000081525060200191505060405180910390fd5b6001600082815260200190815260200160002060020160009054906101000a900473ffffffffffffffffffffffffffffffffffffffff1673ffffffffffffffffffffffffffffffffffffffff163373ffffffffffffffffffffffffffffffffffffffff1614611e3457600080fd5b60008060006001600085815260200190815260200160002060000160009054906101000a900473ffffffffffffffffffffffffffffffffffffffff1673ffffffffffffffffffffffffffffffffffffffff1673ffffffffffffffffffffffffffffffffffffffff16815260200190815260200160002060006101000a81548160ff02191690831515021790555050565b60011515600360003373ffffffffffffffffffffffffffffffffffffffff1673ffffffffffffffffffffffffffffffffffffffff16815260200190815260200160002060009054906101000a900460ff16151514611f8a576040517f08c379a000000000000000000000000000000000000000000000000000000000815260040180806020018281038252601e8152602001807f5573657220646f6573206e6f7420206861766520616e206163636f756e74000081525060200191505060405180910390fd5b6001600082815260200190815260200160002060020160009054906101000a900473ffffffffffffffffffffffffffffffffffffffff1673ffffffffffffffffffffffffffffffffffffffff163373ffffffffffffffffffffffffffffffffffffffff1614611ff857600080fd5b34600160008381526020019081526020016000206001018190555060016000806001600085815260200190815260200160002060000160009054906101000a900473ffffffffffffffffffffffffffffffffffffffff1673ffffffffffffffffffffffffffffffffffffffff1673ffffffffffffffffffffffffffffffffffffffff16815260200190815260200160002060006101000a81548160ff02191690831515021790555050565b606060011515600360003373ffffffffffffffffffffffffffffffffffffffff1673ffffffffffffffffffffffffffffffffffffffff16815260200190815260200160002060009054906101000a900460ff1615151461216b576040517f08c379a000000000000000000000000000000000000000000000000000000000815260040180806020018281038252601e8152602001807f5573657220646f6573206e6f7420206861766520616e206163636f756e74000081525060200191505060405180910390fd5b60078054806020026020016040519081016040528092919081815260200182805480156121ed57602002820191906000526020600020905b8160009054906101000a900473ffffffffffffffffffffffffffffffffffffffff1673ffffffffffffffffffffffffffffffffffffffff16815260200190600101908083116121a3575b5050505050905090565b60011515600360003373ffffffffffffffffffffffffffffffffffffffff1673ffffffffffffffffffffffffffffffffffffffff16815260200190815260200160002060009054906101000a900460ff161515146122bd576040517f08c379a000000000000000000000000000000000000000000000000000000000815260040180806020018281038252601e8152602001807f5573657220646f6573206e6f7420206861766520616e206163636f756e74000081525060200191505060405180910390fd5b60008090505b60045481101561240557600115156000806001600085815260200190815260200160002060000160009054906101000a900473ffffffffffffffffffffffffffffffffffffffff1673ffffffffffffffffffffffffffffffffffffffff1673ffffffffffffffffffffffffffffffffffffffff16815260200190815260200160002060009054906101000a900460ff16151514156123f85760076001600083815260200190815260200160002060000160009054906101000a900473ffffffffffffffffffffffffffffffffffffffff1690806001815401808255809150509060018203906000526020600020016000909192909190916101000a81548173ffffffffffffffffffffffffffffffffffffffff021916908373ffffffffffffffffffffffffffffffffffffffff160217905550505b80806001019150506122c3565b50565b60011515600360003373ffffffffffffffffffffffffffffffffffffffff1673ffffffffffffffffffffffffffffffffffffffff16815260200190815260200160002060009054906101000a900460ff161515146124ce576040517f08c379a000000000000000000000000000000000000000000000000000000000815260040180806020018281038252601e8152602001807f5573657220646f6573206e6f7420206861766520616e206163636f756e74000081525060200191505060405180910390fd5b34600260003373ffffffffffffffffffffffffffffffffffffffff1673ffffffffffffffffffffffffffffffffffffffff16815260200190815260200160002060008282540192505081905550565b60011515600360003373ffffffffffffffffffffffffffffffffffffffff1673ffffffffffffffffffffffffffffffffffffffff16815260200190815260200160002060009054906101000a900460ff161515146125e3576040517f08c379a000000000000000000000000000000000000000000000000000000000815260040180806020018281038252601e8152602001807f5573657220646f6573206e6f7420206861766520616e206163636f756e74000081525060200191505060405180910390fd5b6001600082815260200190815260200160002060020160009054906101000a900473ffffffffffffffffffffffffffffffffffffffff1673ffffffffffffffffffffffffffffffffffffffff163373ffffffffffffffffffffffffffffffffffffffff161461265157600080fd5b60016000828152602001908152602001600020600080820160006101000a81549073ffffffffffffffffffffffffffffffffffffffff021916905560018201600090556002820160006101000a81549073ffffffffffffffffffffffffffffffffffffffff02191690556003820160006126cb9190612802565b50506004600081548092919060019003919050555050565b60026020528060005260406000206000915090505481565b828054600181600116156101000203166002900490600052602060002090601f016020900481019282601f1061273c57803560ff191683800117855561276a565b8280016001018555821561276a579182015b8281111561276957823582559160200191906001019061274e565b5b509050612777919061284a565b5090565b828054600181600116156101000203166002900490600052602060002090601f016020900481019282601f106127b457805485556127f1565b828001600101855582156127f157600052602060002091601f016020900482015b828111156127f05782548255916001019190600101906127d5565b5b5090506127fe919061284a565b5090565b50805460018160011615610100020316600290046000825580601f106128285750612847565b601f016020900490600052602060002090810190612846919061284a565b5b50565b61286c91905b80821115612868576000816000905550600101612850565b5090565b9056fea265627a7a7231582041e85cd70648f77dee15c1e969971be1d48fc15a1587dd65cd73d888f99bb6c264736f6c63430005100032",
  "source": "pragma solidity >0.5.2;\r\n\r\ncontract couponModify{\r\n \r\n   \r\n    mapping(address => bool)internal Avaliable;\r\n    mapping(uint => Inventory) public coupons;\r\n    mapping(address => uint) public ownerAccounts;\r\n    mapping(address => bool)internal hasSigned;\r\n    uint idcoupon=0;\r\n    \r\n    struct Inventory{\r\n        address couponAddress;\r\n        uint value;                 //price of coupon \r\n        address payable owner;\r\n        string keyword;\r\n    }\r\n    \r\n    \r\n    Inventory[] internal coupon;\r\n    address[] internal couponAccts;\r\n    address[] internal Avaliable_Coupons;\r\n    \r\n    modifier isSigned(){\r\n        require (hasSigned[msg.sender] == true, \"User does not  have an account\");\r\n        _;\r\n    }\r\n    \r\n    function setAccount () external {\r\n        require (hasSigned[msg.sender] == false, \"You already have an account!\");\r\n        hasSigned[msg.sender] = true;\r\n       \r\n    }\r\n   \r\n   function checkAccount () view external returns (bool){\r\n        require (hasSigned[msg.sender] == true, \"You don't have an account.\");\r\n        return(hasSigned[msg.sender]);\r\n       \r\n   }\r\n   \r\n    function deposit () external payable isSigned {\r\n        ownerAccounts[msg.sender] += msg.value;\r\n    }\r\n    function withdraw () external payable isSigned {\r\n        ownerAccounts[msg.sender] -= msg.value;\r\n        msg.sender.transfer(msg.value);\r\n    }\r\n    \r\n     function addNew(address _couponAddress, string calldata _keyword) external isSigned  {\r\n        Inventory storage new_coupon = coupons[idcoupon];\r\n        new_coupon.couponAddress = _couponAddress;\r\n        new_coupon.value = 0;\r\n        new_coupon.owner = msg.sender;\r\n        new_coupon.keyword = _keyword;\r\n        \r\n        coupon.push(new_coupon);\r\n        Avaliable[coupons[idcoupon].couponAddress]=false;\r\n        idcoupon++;\r\n         \r\n    }\r\n    \r\n    \r\n    function UseCoupon (uint _id) external isSigned {\r\n        require(msg.sender == coupons[_id].owner);\r\n        delete coupons[_id];\r\n            idcoupon--; \r\n        \r\n    }\r\n    \r\n    function Remove_from_Market (uint _id) external isSigned{\r\n        require(msg.sender == coupons[_id].owner);\r\n        Avaliable[coupons[_id].couponAddress]=false;\r\n    }\r\n    \r\n    function Add_to_Market (uint _id) external payable isSigned{\r\n        require(msg.sender == coupons[_id].owner);\r\n        coupons[_id].value = msg.value;\r\n        Avaliable[coupons[_id].couponAddress]=true;\r\n        \r\n    }\r\n    \r\n    function getSearchAll() external isSigned{\r\n        for(uint i=0; i<idcoupon; i++){\r\n            if (Avaliable[coupons[i].couponAddress] == true){\r\n                Avaliable_Coupons.push(coupons[i].couponAddress);         \r\n            }    \r\n        }\r\n        \r\n    }\r\n    \r\n     function showSearchAll () view external isSigned returns (address[] memory){\r\n              \r\n        return Avaliable_Coupons;\r\n    }\r\n    \r\n    function getInventory ()  external isSigned  {\r\n        \r\n        for(uint i=0; i<idcoupon; i++){\r\n            if (coupons[i].owner == msg.sender){\r\n                couponAccts.push(coupons[i].couponAddress);         \r\n            }    \r\n        }\r\n    }\r\n    \r\n    function showInventory () view external isSigned returns (address[] memory){\r\n              \r\n        return couponAccts;\r\n    }\r\n        \r\n    function Buy (uint _id) external payable isSigned{\r\n        require(msg.sender != coupons[_id].owner,  \"You are Not the owner\");\r\n        require(ownerAccounts[msg.sender] >= coupons[_id].value,  \"Unsufficient Funds\");\r\n        require(Avaliable[coupons[_id].couponAddress]=true, \"Not Avaliable for Trade\");\r\n        \r\n        \r\n        ownerAccounts[msg.sender] -= coupons[_id].value;\r\n        ownerAccounts[coupons[_id].owner] += coupons[_id].value;\r\n        coupons[_id].owner = msg.sender;\r\n    }\r\n    \r\n\r\n    function Trade(uint _mycouponID, uint _wantedcouponID) external payable isSigned{\r\n        \r\n        require(msg.sender == coupons[_mycouponID].owner, \"You are Not the owner\");\r\n        require(msg.sender != coupons[_wantedcouponID].owner, \"This is your coupon\");\r\n        require (ownerAccounts[msg.sender] >= msg.value, \"Unsufficient Funds\");\r\n        require( coupons[_mycouponID].value +  msg.value == coupons[_wantedcouponID].value, \"Not enough funds\" );\r\n        require(Avaliable[coupons[_mycouponID].couponAddress]=true, \"Not Avaliable for Trade\");\r\n        require(Avaliable[coupons[_wantedcouponID].couponAddress]=true, \" Not Avaliable for Trade\");\r\n        \r\n        ownerAccounts[msg.sender] -= msg.value;\r\n        ownerAccounts[coupons[_wantedcouponID].owner] += msg.value;\r\n        \r\n        coupons[_mycouponID].owner = coupons[_wantedcouponID].owner;\r\n        coupons[_wantedcouponID].owner = msg.sender;\r\n    }\r\n    \r\n    \r\n    \r\n}\r\n   \r\n\r\n",
  "sourcePath": "C:\\Users\\Mavris\\Desktop\\uni\\semesters\\8 semester\\blockchain\\final assigment\\Coupon-Dapp\\product_modify\\product-modify\\contracts\\couponModify.sol",
  "compiler": {
    "name": "solc",
    "version": "0.5.16+commit.9c3226ce.Emscripten.clang"
  },
  "schemaVersion": "3.1.0",
  "updatedAt": "2020-08-06T08:36:36.176Z",
  "devdoc": {
    "methods": {}
  },
  "userdoc": {
    "methods": {}
  }
}