{
  "contractName": "couponModify",
  "abi": [
    {
      "constant": true,
      "inputs": [
        {
          "internalType": "uint256",
          "name": "",
          "type": "uint256"
        }
      ],
      "name": "coupons",
      "outputs": [
        {
          "internalType": "bytes32",
          "name": "couponAddress",
          "type": "bytes32"
        },
        {
          "internalType": "uint256",
          "name": "value",
          "type": "uint256"
        },
        {
          "internalType": "address payable",
          "name": "owner",
          "type": "address"
        },
        {
          "internalType": "string",
          "name": "keyword",
          "type": "string"
        }
      ],
      "payable": false,
      "stateMutability": "view",
      "type": "function"
    },
    {
      "constant": true,
      "inputs": [
        {
          "internalType": "address",
          "name": "",
          "type": "address"
        }
      ],
      "name": "ownerAccounts",
      "outputs": [
        {
          "internalType": "uint256",
          "name": "",
          "type": "uint256"
        }
      ],
      "payable": false,
      "stateMutability": "view",
      "type": "function"
    },
    {
      "constant": false,
      "inputs": [],
      "name": "setAccount",
      "outputs": [],
      "payable": false,
      "stateMutability": "nonpayable",
      "type": "function"
    },
    {
      "constant": true,
      "inputs": [],
      "name": "checkAccount",
      "outputs": [
        {
          "internalType": "bool",
          "name": "",
          "type": "bool"
        }
      ],
      "payable": false,
      "stateMutability": "view",
      "type": "function"
    },
    {
      "constant": false,
      "inputs": [],
      "name": "deposit",
      "outputs": [],
      "payable": true,
      "stateMutability": "payable",
      "type": "function"
    },
    {
      "constant": false,
      "inputs": [],
      "name": "withdraw",
      "outputs": [],
      "payable": true,
      "stateMutability": "payable",
      "type": "function"
    },
    {
      "constant": false,
      "inputs": [
        {
          "internalType": "bytes32",
          "name": "_couponAddress",
          "type": "bytes32"
        },
        {
          "internalType": "string",
          "name": "_keyword",
          "type": "string"
        }
      ],
      "name": "addNew",
      "outputs": [],
      "payable": false,
      "stateMutability": "nonpayable",
      "type": "function"
    },
    {
      "constant": false,
      "inputs": [
        {
          "internalType": "uint256",
          "name": "_id",
          "type": "uint256"
        }
      ],
      "name": "useCoupon",
      "outputs": [],
      "payable": false,
      "stateMutability": "nonpayable",
      "type": "function"
    },
    {
      "constant": false,
      "inputs": [
        {
          "internalType": "uint256",
          "name": "_id",
          "type": "uint256"
        }
      ],
      "name": "removeFromMarket",
      "outputs": [],
      "payable": false,
      "stateMutability": "nonpayable",
      "type": "function"
    },
    {
      "constant": false,
      "inputs": [
        {
          "internalType": "uint256",
          "name": "_id",
          "type": "uint256"
        }
      ],
      "name": "addToMarket",
      "outputs": [],
      "payable": true,
      "stateMutability": "payable",
      "type": "function"
    },
    {
      "constant": false,
      "inputs": [],
      "name": "getSearchAll",
      "outputs": [],
      "payable": false,
      "stateMutability": "nonpayable",
      "type": "function"
    },
    {
      "constant": true,
      "inputs": [],
      "name": "showSearchAll",
      "outputs": [
        {
          "internalType": "bytes32[]",
          "name": "",
          "type": "bytes32[]"
        }
      ],
      "payable": false,
      "stateMutability": "view",
      "type": "function"
    },
    {
      "constant": false,
      "inputs": [],
      "name": "getInventory",
      "outputs": [],
      "payable": false,
      "stateMutability": "nonpayable",
      "type": "function"
    },
    {
      "constant": true,
      "inputs": [],
      "name": "showInventory",
      "outputs": [
        {
          "internalType": "bytes32[]",
          "name": "",
          "type": "bytes32[]"
        }
      ],
      "payable": false,
      "stateMutability": "view",
      "type": "function"
    },
    {
      "constant": false,
      "inputs": [
        {
          "internalType": "uint256",
          "name": "_id",
          "type": "uint256"
        }
      ],
      "name": "Buy",
      "outputs": [],
      "payable": true,
      "stateMutability": "payable",
      "type": "function"
    },
    {
      "constant": false,
      "inputs": [
        {
          "internalType": "uint256",
          "name": "_mycouponID",
          "type": "uint256"
        },
        {
          "internalType": "uint256",
          "name": "_wantedcouponID",
          "type": "uint256"
        }
      ],
      "name": "Trade",
      "outputs": [],
      "payable": true,
      "stateMutability": "payable",
      "type": "function"
    }
  ],
  "bytecode": "0x6080604052600060045534801561001557600080fd5b50612392806100256000396000f3fe6080604052600436106100f35760003560e01c80636457bd041161008a578063b2bbef8e11610059578063b2bbef8e1461045a578063b8fcf5be146104c6578063d0e30db0146104dd578063f641d5ec146104e7576100f3565b80636457bd04146103265780637dab3269146103615780638e0ab38a1461039c578063992796fd146103ca576100f3565b80633e328218116100c65780633e3282181461029b578063469c6dbb146102c95780635c13a439146102e05780635d7f850c1461030f576100f3565b8063169c93d1146100f857806330828e9214610130578063314563c4146102255780633ccfd60b14610291575b600080fd5b61012e6004803603604081101561010e57600080fd5b81019080803590602001909291908035906020019092919050505061054c565b005b34801561013c57600080fd5b506101696004803603602081101561015357600080fd5b8101908080359060200190929190505050610c31565b604051808581526020018481526020018373ffffffffffffffffffffffffffffffffffffffff1673ffffffffffffffffffffffffffffffffffffffff16815260200180602001828103825283818151815260200191508051906020019080838360005b838110156101e75780820151818401526020810190506101cc565b50505050905090810190601f1680156102145780820380516001836020036101000a031916815260200191505b509550505050505060405180910390f35b34801561023157600080fd5b5061023a610d19565b6040518080602001828103825283818151815260200191508051906020019060200280838360005b8381101561027d578082015181840152602081019050610262565b505050509050019250505060405180910390f35b610299610e37565b005b6102c7600480360360208110156102b157600080fd5b8101908080359060200190929190505050610f93565b005b3480156102d557600080fd5b506102de611402565b005b3480156102ec57600080fd5b506102f5611522565b604051808215151515815260200191505060405180910390f35b34801561031b57600080fd5b50610324611576565b005b34801561033257600080fd5b5061035f6004803603602081101561034957600080fd5b8101908080359060200190929190505050611709565b005b34801561036d57600080fd5b5061039a6004803603602081101561038457600080fd5b8101908080359060200190929190505050611881565b005b6103c8600480360360208110156103b257600080fd5b8101908080359060200190929190505050611a28565b005b3480156103d657600080fd5b50610458600480360360408110156103ed57600080fd5b81019080803590602001909291908035906020019064010000000081111561041457600080fd5b82018360208201111561042657600080fd5b8035906020019184600183028401116401000000008311171561044857600080fd5b9091929391929390505050611bbb565b005b34801561046657600080fd5b5061046f611e33565b6040518080602001828103825283818151815260200191508051906020019060200280838360005b838110156104b2578082015181840152602081019050610497565b505050509050019250505060405180910390f35b3480156104d257600080fd5b506104db611f51565b005b6104e56120bc565b005b3480156104f357600080fd5b506105366004803603602081101561050a57600080fd5b81019080803573ffffffffffffffffffffffffffffffffffffffff1690602001909291905050506121d1565b6040518082815260200191505060405180910390f35b60011515600360003373ffffffffffffffffffffffffffffffffffffffff1673ffffffffffffffffffffffffffffffffffffffff16815260200190815260200160002060009054906101000a900460ff16151514610612576040517f08c379a000000000000000000000000000000000000000000000000000000000815260040180806020018281038252601e8152602001807f5573657220646f6573206e6f7420206861766520616e206163636f756e74000081525060200191505060405180910390fd5b6001600083815260200190815260200160002060020160009054906101000a900473ffffffffffffffffffffffffffffffffffffffff1673ffffffffffffffffffffffffffffffffffffffff163373ffffffffffffffffffffffffffffffffffffffff16146106e9576040517f08c379a00000000000000000000000000000000000000000000000000000000081526004018080602001828103825260158152602001807f596f7520617265204e6f7420746865206f776e6572000000000000000000000081525060200191505060405180910390fd5b6001600082815260200190815260200160002060020160009054906101000a900473ffffffffffffffffffffffffffffffffffffffff1673ffffffffffffffffffffffffffffffffffffffff163373ffffffffffffffffffffffffffffffffffffffff1614156107c1576040517f08c379a00000000000000000000000000000000000000000000000000000000081526004018080602001828103825260138152602001807f5468697320697320796f757220636f75706f6e0000000000000000000000000081525060200191505060405180910390fd5b34600260003373ffffffffffffffffffffffffffffffffffffffff1673ffffffffffffffffffffffffffffffffffffffff168152602001908152602001600020541015610876576040517f08c379a00000000000000000000000000000000000000000000000000000000081526004018080602001828103825260128152602001807f556e73756666696369656e742046756e6473000000000000000000000000000081525060200191505060405180910390fd5b60016000828152602001908152602001600020600101543460016000858152602001908152602001600020600101540114610919576040517f08c379a00000000000000000000000000000000000000000000000000000000081526004018080602001828103825260108152602001807f4e6f7420656e6f7567682066756e64730000000000000000000000000000000081525060200191505060405180910390fd5b60016000806001600086815260200190815260200160002060000154815260200190815260200160002060006101000a81548160ff02191690831515021790556109cb576040517f08c379a00000000000000000000000000000000000000000000000000000000081526004018080602001828103825260178152602001807f4e6f74204176616c6961626c6520666f7220547261646500000000000000000081525060200191505060405180910390fd5b60016000806001600085815260200190815260200160002060000154815260200190815260200160002060006101000a81548160ff0219169083151502179055610a7d576040517f08c379a00000000000000000000000000000000000000000000000000000000081526004018080602001828103825260188152602001807f204e6f74204176616c6961626c6520666f72205472616465000000000000000081525060200191505060405180910390fd5b34600260003373ffffffffffffffffffffffffffffffffffffffff1673ffffffffffffffffffffffffffffffffffffffff1681526020019081526020016000206000828254039250508190555034600260006001600085815260200190815260200160002060020160009054906101000a900473ffffffffffffffffffffffffffffffffffffffff1673ffffffffffffffffffffffffffffffffffffffff1673ffffffffffffffffffffffffffffffffffffffff168152602001908152602001600020600082825401925050819055506001600082815260200190815260200160002060020160009054906101000a900473ffffffffffffffffffffffffffffffffffffffff166001600084815260200190815260200160002060020160006101000a81548173ffffffffffffffffffffffffffffffffffffffff021916908373ffffffffffffffffffffffffffffffffffffffff160217905550336001600083815260200190815260200160002060020160006101000a81548173ffffffffffffffffffffffffffffffffffffffff021916908373ffffffffffffffffffffffffffffffffffffffff1602179055505050565b60016020528060005260406000206000915090508060000154908060010154908060020160009054906101000a900473ffffffffffffffffffffffffffffffffffffffff1690806003018054600181600116156101000203166002900480601f016020809104026020016040519081016040528092919081815260200182805460018160011615610100020316600290048015610d0f5780601f10610ce457610100808354040283529160200191610d0f565b820191906000526020600020905b815481529060010190602001808311610cf257829003601f168201915b5050505050905084565b606060011515600360003373ffffffffffffffffffffffffffffffffffffffff1673ffffffffffffffffffffffffffffffffffffffff16815260200190815260200160002060009054906101000a900460ff16151514610de1576040517f08c379a000000000000000000000000000000000000000000000000000000000815260040180806020018281038252601e8152602001807f5573657220646f6573206e6f7420206861766520616e206163636f756e74000081525060200191505060405180910390fd5b6006805480602002602001604051908101604052809291908181526020018280548015610e2d57602002820191906000526020600020905b815481526020019060010190808311610e19575b5050505050905090565b60011515600360003373ffffffffffffffffffffffffffffffffffffffff1673ffffffffffffffffffffffffffffffffffffffff16815260200190815260200160002060009054906101000a900460ff16151514610efd576040517f08c379a000000000000000000000000000000000000000000000000000000000815260040180806020018281038252601e8152602001807f5573657220646f6573206e6f7420206861766520616e206163636f756e74000081525060200191505060405180910390fd5b34600260003373ffffffffffffffffffffffffffffffffffffffff1673ffffffffffffffffffffffffffffffffffffffff168152602001908152602001600020600082825403925050819055503373ffffffffffffffffffffffffffffffffffffffff166108fc349081150290604051600060405180830381858888f19350505050158015610f90573d6000803e3d6000fd5b50565b60011515600360003373ffffffffffffffffffffffffffffffffffffffff1673ffffffffffffffffffffffffffffffffffffffff16815260200190815260200160002060009054906101000a900460ff16151514611059576040517f08c379a000000000000000000000000000000000000000000000000000000000815260040180806020018281038252601e8152602001807f5573657220646f6573206e6f7420206861766520616e206163636f756e74000081525060200191505060405180910390fd5b6001600082815260200190815260200160002060020160009054906101000a900473ffffffffffffffffffffffffffffffffffffffff1673ffffffffffffffffffffffffffffffffffffffff163373ffffffffffffffffffffffffffffffffffffffff161415611131576040517f08c379a00000000000000000000000000000000000000000000000000000000081526004018080602001828103825260158152602001807f596f7520617265204e6f7420746865206f776e6572000000000000000000000081525060200191505060405180910390fd5b6001600082815260200190815260200160002060010154600260003373ffffffffffffffffffffffffffffffffffffffff1673ffffffffffffffffffffffffffffffffffffffff1681526020019081526020016000205410156111fc576040517f08c379a00000000000000000000000000000000000000000000000000000000081526004018080602001828103825260128152602001807f556e73756666696369656e742046756e6473000000000000000000000000000081525060200191505060405180910390fd5b60016000806001600085815260200190815260200160002060000154815260200190815260200160002060006101000a81548160ff02191690831515021790556112ae576040517f08c379a00000000000000000000000000000000000000000000000000000000081526004018080602001828103825260178152602001807f4e6f74204176616c6961626c6520666f7220547261646500000000000000000081525060200191505060405180910390fd5b6001600082815260200190815260200160002060010154600260003373ffffffffffffffffffffffffffffffffffffffff1673ffffffffffffffffffffffffffffffffffffffff168152602001908152602001600020600082825403925050819055506001600082815260200190815260200160002060010154600260006001600085815260200190815260200160002060020160009054906101000a900473ffffffffffffffffffffffffffffffffffffffff1673ffffffffffffffffffffffffffffffffffffffff1673ffffffffffffffffffffffffffffffffffffffff16815260200190815260200160002060008282540192505081905550336001600083815260200190815260200160002060020160006101000a81548173ffffffffffffffffffffffffffffffffffffffff021916908373ffffffffffffffffffffffffffffffffffffffff16021790555050565b60001515600360003373ffffffffffffffffffffffffffffffffffffffff1673ffffffffffffffffffffffffffffffffffffffff16815260200190815260200160002060009054906101000a900460ff161515146114c8576040517f08c379a000000000000000000000000000000000000000000000000000000000815260040180806020018281038252601c8152602001807f596f7520616c7265616479206861766520616e206163636f756e74210000000081525060200191505060405180910390fd5b6001600360003373ffffffffffffffffffffffffffffffffffffffff1673ffffffffffffffffffffffffffffffffffffffff16815260200190815260200160002060006101000a81548160ff021916908315150217905550565b6000600360003373ffffffffffffffffffffffffffffffffffffffff1673ffffffffffffffffffffffffffffffffffffffff16815260200190815260200160002060009054906101000a900460ff16905090565b60011515600360003373ffffffffffffffffffffffffffffffffffffffff1673ffffffffffffffffffffffffffffffffffffffff16815260200190815260200160002060009054906101000a900460ff1615151461163c576040517f08c379a000000000000000000000000000000000000000000000000000000000815260040180806020018281038252601e8152602001807f5573657220646f6573206e6f7420206861766520616e206163636f756e74000081525060200191505060405180910390fd5b60008090505b600454811015611706573373ffffffffffffffffffffffffffffffffffffffff166001600083815260200190815260200160002060020160009054906101000a900473ffffffffffffffffffffffffffffffffffffffff1673ffffffffffffffffffffffffffffffffffffffff1614156116f9576006600160008381526020019081526020016000206000015490806001815401808255809150509060018203906000526020600020016000909192909190915055505b8080600101915050611642565b50565b60011515600360003373ffffffffffffffffffffffffffffffffffffffff1673ffffffffffffffffffffffffffffffffffffffff16815260200190815260200160002060009054906101000a900460ff161515146117cf576040517f08c379a000000000000000000000000000000000000000000000000000000000815260040180806020018281038252601e8152602001807f5573657220646f6573206e6f7420206861766520616e206163636f756e74000081525060200191505060405180910390fd5b6001600082815260200190815260200160002060020160009054906101000a900473ffffffffffffffffffffffffffffffffffffffff1673ffffffffffffffffffffffffffffffffffffffff163373ffffffffffffffffffffffffffffffffffffffff161461183d57600080fd5b60008060006001600085815260200190815260200160002060000154815260200190815260200160002060006101000a81548160ff02191690831515021790555050565b60011515600360003373ffffffffffffffffffffffffffffffffffffffff1673ffffffffffffffffffffffffffffffffffffffff16815260200190815260200160002060009054906101000a900460ff16151514611947576040517f08c379a000000000000000000000000000000000000000000000000000000000815260040180806020018281038252601e8152602001807f5573657220646f6573206e6f7420206861766520616e206163636f756e74000081525060200191505060405180910390fd5b6001600082815260200190815260200160002060020160009054906101000a900473ffffffffffffffffffffffffffffffffffffffff1673ffffffffffffffffffffffffffffffffffffffff163373ffffffffffffffffffffffffffffffffffffffff16146119b557600080fd5b6001600082815260200190815260200160002060008082016000905560018201600090556002820160006101000a81549073ffffffffffffffffffffffffffffffffffffffff0219169055600382016000611a1091906121e9565b50506004600081548092919060019003919050555050565b60011515600360003373ffffffffffffffffffffffffffffffffffffffff1673ffffffffffffffffffffffffffffffffffffffff16815260200190815260200160002060009054906101000a900460ff16151514611aee576040517f08c379a000000000000000000000000000000000000000000000000000000000815260040180806020018281038252601e8152602001807f5573657220646f6573206e6f7420206861766520616e206163636f756e74000081525060200191505060405180910390fd5b6001600082815260200190815260200160002060020160009054906101000a900473ffffffffffffffffffffffffffffffffffffffff1673ffffffffffffffffffffffffffffffffffffffff163373ffffffffffffffffffffffffffffffffffffffff1614611b5c57600080fd5b34600160008381526020019081526020016000206001018190555060016000806001600085815260200190815260200160002060000154815260200190815260200160002060006101000a81548160ff02191690831515021790555050565b60011515600360003373ffffffffffffffffffffffffffffffffffffffff1673ffffffffffffffffffffffffffffffffffffffff16815260200190815260200160002060009054906101000a900460ff16151514611c81576040517f08c379a000000000000000000000000000000000000000000000000000000000815260040180806020018281038252601e8152602001807f5573657220646f6573206e6f7420206861766520616e206163636f756e74000081525060200191505060405180910390fd5b6000600160006004548152602001908152602001600020905083816000018190555060008160010181905550338160020160006101000a81548173ffffffffffffffffffffffffffffffffffffffff021916908373ffffffffffffffffffffffffffffffffffffffff1602179055508282826003019190611d03929190612231565b506005819080600181540180825580915050906001820390600052602060002090600402016000909192909190915060008201548160000155600182015481600101556002820160009054906101000a900473ffffffffffffffffffffffffffffffffffffffff168160020160006101000a81548173ffffffffffffffffffffffffffffffffffffffff021916908373ffffffffffffffffffffffffffffffffffffffff16021790555060038201816003019080546001816001161561010002031660029004611dd49291906122b1565b50505050600080600060016000600454815260200190815260200160002060000154815260200190815260200160002060006101000a81548160ff02191690831515021790555060046000815480929190600101919050555050505050565b606060011515600360003373ffffffffffffffffffffffffffffffffffffffff1673ffffffffffffffffffffffffffffffffffffffff16815260200190815260200160002060009054906101000a900460ff16151514611efb576040517f08c379a000000000000000000000000000000000000000000000000000000000815260040180806020018281038252601e8152602001807f5573657220646f6573206e6f7420206861766520616e206163636f756e74000081525060200191505060405180910390fd5b6007805480602002602001604051908101604052809291908181526020018280548015611f4757602002820191906000526020600020905b815481526020019060010190808311611f33575b5050505050905090565b60011515600360003373ffffffffffffffffffffffffffffffffffffffff1673ffffffffffffffffffffffffffffffffffffffff16815260200190815260200160002060009054906101000a900460ff16151514612017576040517f08c379a000000000000000000000000000000000000000000000000000000000815260040180806020018281038252601e8152602001807f5573657220646f6573206e6f7420206861766520616e206163636f756e74000081525060200191505060405180910390fd5b60008090505b6004548110156120b957600115156000806001600085815260200190815260200160002060000154815260200190815260200160002060009054906101000a900460ff16151514156120ac576007600160008381526020019081526020016000206000015490806001815401808255809150509060018203906000526020600020016000909192909190915055505b808060010191505061201d565b50565b60011515600360003373ffffffffffffffffffffffffffffffffffffffff1673ffffffffffffffffffffffffffffffffffffffff16815260200190815260200160002060009054906101000a900460ff16151514612182576040517f08c379a000000000000000000000000000000000000000000000000000000000815260040180806020018281038252601e8152602001807f5573657220646f6573206e6f7420206861766520616e206163636f756e74000081525060200191505060405180910390fd5b34600260003373ffffffffffffffffffffffffffffffffffffffff1673ffffffffffffffffffffffffffffffffffffffff16815260200190815260200160002060008282540192505081905550565b60026020528060005260406000206000915090505481565b50805460018160011615610100020316600290046000825580601f1061220f575061222e565b601f01602090049060005260206000209081019061222d9190612338565b5b50565b828054600181600116156101000203166002900490600052602060002090601f016020900481019282601f1061227257803560ff19168380011785556122a0565b828001600101855582156122a0579182015b8281111561229f578235825591602001919060010190612284565b5b5090506122ad9190612338565b5090565b828054600181600116156101000203166002900490600052602060002090601f016020900481019282601f106122ea5780548555612327565b8280016001018555821561232757600052602060002091601f016020900482015b8281111561232657825482559160010191906001019061230b565b5b5090506123349190612338565b5090565b61235a91905b8082111561235657600081600090555060010161233e565b5090565b9056fea265627a7a723158202b78e15c165ea903b739166649da06d846804a35141e781b3fecc1166404f10e64736f6c63430005100032",
  "source": "pragma solidity >0.5.2;\r\n\r\ncontract couponModify{\r\n \r\n   \r\n    mapping(bytes32 => bool)internal Avaliable;\r\n    mapping(uint => Inventory) public coupons;\r\n    mapping(address => uint) public ownerAccounts;\r\n    mapping(address => bool)internal hasSigned;\r\n    uint idcoupon=0;\r\n    \r\n    struct Inventory{\r\n        bytes32 couponAddress;\r\n        uint value;                 //price of coupon \r\n        address payable owner;\r\n        string keyword;\r\n    }\r\n    \r\n    \r\n    Inventory[] internal coupon;\r\n    bytes32[] internal couponAccts;\r\n    bytes32[] internal Avaliable_Coupons;\r\n    \r\n    modifier isSigned(){\r\n        require (hasSigned[msg.sender] == true, \"User does not  have an account\");\r\n        _;\r\n    }\r\n    \r\n    function setAccount () external {\r\n        require (hasSigned[msg.sender] == false, \"You already have an account!\");\r\n        hasSigned[msg.sender] = true;\r\n       \r\n    }\r\n   \r\n   function checkAccount () view external returns (bool){\r\n        return(hasSigned[msg.sender]);\r\n   }\r\n   \r\n    function deposit () external payable isSigned {\r\n        ownerAccounts[msg.sender] += msg.value;\r\n    }\r\n    function withdraw () external payable isSigned {\r\n        ownerAccounts[msg.sender] -= msg.value;\r\n        msg.sender.transfer(msg.value);\r\n    }\r\n    \r\n     function addNew(bytes32 _couponAddress, string calldata _keyword) external isSigned  {\r\n        Inventory storage new_coupon = coupons[idcoupon];\r\n        new_coupon.couponAddress = _couponAddress;\r\n        new_coupon.value = 0;\r\n        new_coupon.owner = msg.sender;\r\n        new_coupon.keyword = _keyword;\r\n        \r\n        coupon.push(new_coupon);\r\n        Avaliable[coupons[idcoupon].couponAddress]=false;\r\n        idcoupon++;\r\n         \r\n    }\r\n    \r\n    \r\n    function useCoupon (uint _id) external isSigned {\r\n        require(msg.sender == coupons[_id].owner);\r\n        delete coupons[_id];\r\n            idcoupon--; \r\n        \r\n    }\r\n    \r\n    function removeFromMarket (uint _id) external isSigned{\r\n        require(msg.sender == coupons[_id].owner);\r\n        Avaliable[coupons[_id].couponAddress]=false;\r\n    }\r\n    \r\n    function addToMarket (uint _id) external payable isSigned{\r\n        require(msg.sender == coupons[_id].owner);\r\n        coupons[_id].value = msg.value;\r\n        Avaliable[coupons[_id].couponAddress]=true;\r\n        \r\n    }\r\n    \r\n    function getSearchAll() external isSigned{\r\n        for(uint i=0; i<idcoupon; i++){\r\n            if (Avaliable[coupons[i].couponAddress] == true){\r\n                Avaliable_Coupons.push(coupons[i].couponAddress);         \r\n            }    \r\n        }\r\n        \r\n    }\r\n    \r\n     function showSearchAll () view external isSigned returns (bytes32[] memory){\r\n              \r\n        return Avaliable_Coupons;\r\n    }\r\n    \r\n    function getInventory ()  external isSigned  {\r\n        \r\n        for(uint i=0; i<idcoupon; i++){\r\n            if (coupons[i].owner == msg.sender){\r\n                couponAccts.push(coupons[i].couponAddress);         \r\n            }    \r\n        }\r\n    }\r\n    \r\n    function showInventory () view external isSigned returns (bytes32[] memory){\r\n              \r\n        return couponAccts;\r\n    }\r\n        \r\n    function Buy (uint _id) external payable isSigned{\r\n        require(msg.sender != coupons[_id].owner,  \"You are Not the owner\");\r\n        require(ownerAccounts[msg.sender] >= coupons[_id].value,  \"Unsufficient Funds\");\r\n        require(Avaliable[coupons[_id].couponAddress]=true, \"Not Avaliable for Trade\");\r\n        \r\n        \r\n        ownerAccounts[msg.sender] -= coupons[_id].value;\r\n        ownerAccounts[coupons[_id].owner] += coupons[_id].value;\r\n        coupons[_id].owner = msg.sender;\r\n    }\r\n    \r\n\r\n    function Trade(uint _mycouponID, uint _wantedcouponID) external payable isSigned{\r\n        \r\n        require(msg.sender == coupons[_mycouponID].owner, \"You are Not the owner\");\r\n        require(msg.sender != coupons[_wantedcouponID].owner, \"This is your coupon\");\r\n        require (ownerAccounts[msg.sender] >= msg.value, \"Unsufficient Funds\");\r\n        require( coupons[_mycouponID].value +  msg.value == coupons[_wantedcouponID].value, \"Not enough funds\" );\r\n        require(Avaliable[coupons[_mycouponID].couponAddress]=true, \"Not Avaliable for Trade\");\r\n        require(Avaliable[coupons[_wantedcouponID].couponAddress]=true, \" Not Avaliable for Trade\");\r\n        \r\n        ownerAccounts[msg.sender] -= msg.value;\r\n        ownerAccounts[coupons[_wantedcouponID].owner] += msg.value;\r\n        \r\n        coupons[_mycouponID].owner = coupons[_wantedcouponID].owner;\r\n        coupons[_wantedcouponID].owner = msg.sender;\r\n    }\r\n    \r\n    \r\n    \r\n}\r\n   \r\n\r\n",
  "sourcePath": "C:\\Users\\Mavris\\Desktop\\uni\\semesters\\8 semester\\blockchain\\final assigment\\Coupon-Dapp\\product_modify\\product-modify\\contracts\\couponModify.sol",
  "compiler": {
    "name": "solc",
    "version": "0.5.16+commit.9c3226ce.Emscripten.clang"
  },
  "schemaVersion": "3.1.0",
  "updatedAt": "2020-08-08T16:16:59.423Z",
  "devdoc": {
    "methods": {}
  },
  "userdoc": {
    "methods": {}
  }
}