{
  "contractName": "couponModify",
  "abi": [
    {
      "constant": true,
      "inputs": [
        {
          "internalType": "uint256",
          "name": "",
          "type": "uint256"
        }
      ],
      "name": "coupons",
      "outputs": [
        {
          "internalType": "address",
          "name": "couponAddress",
          "type": "address"
        },
        {
          "internalType": "uint256",
          "name": "value",
          "type": "uint256"
        },
        {
          "internalType": "address payable",
          "name": "owner",
          "type": "address"
        }
      ],
      "payable": false,
      "stateMutability": "view",
      "type": "function"
    },
    {
      "constant": true,
      "inputs": [
        {
          "internalType": "address",
          "name": "",
          "type": "address"
        }
      ],
      "name": "ownerAccounts",
      "outputs": [
        {
          "internalType": "uint256",
          "name": "",
          "type": "uint256"
        }
      ],
      "payable": false,
      "stateMutability": "view",
      "type": "function"
    },
    {
      "constant": false,
      "inputs": [],
      "name": "setAccount",
      "outputs": [],
      "payable": false,
      "stateMutability": "nonpayable",
      "type": "function"
    },
    {
      "constant": false,
      "inputs": [],
      "name": "deposit",
      "outputs": [],
      "payable": true,
      "stateMutability": "payable",
      "type": "function"
    },
    {
      "constant": false,
      "inputs": [],
      "name": "withdraw",
      "outputs": [],
      "payable": true,
      "stateMutability": "payable",
      "type": "function"
    },
    {
      "constant": false,
      "inputs": [
        {
          "internalType": "address",
          "name": "_couponAddress",
          "type": "address"
        },
        {
          "internalType": "uint256",
          "name": "_val",
          "type": "uint256"
        }
      ],
      "name": "addNew",
      "outputs": [],
      "payable": false,
      "stateMutability": "nonpayable",
      "type": "function"
    },
    {
      "constant": false,
      "inputs": [
        {
          "internalType": "uint256",
          "name": "_id",
          "type": "uint256"
        }
      ],
      "name": "UseCoupon",
      "outputs": [],
      "payable": false,
      "stateMutability": "nonpayable",
      "type": "function"
    },
    {
      "constant": false,
      "inputs": [
        {
          "internalType": "uint256",
          "name": "_id",
          "type": "uint256"
        }
      ],
      "name": "Remove_from_Market",
      "outputs": [],
      "payable": false,
      "stateMutability": "nonpayable",
      "type": "function"
    },
    {
      "constant": false,
      "inputs": [
        {
          "internalType": "uint256",
          "name": "_id",
          "type": "uint256"
        }
      ],
      "name": "Add_to_Market",
      "outputs": [],
      "payable": false,
      "stateMutability": "nonpayable",
      "type": "function"
    },
    {
      "constant": false,
      "inputs": [],
      "name": "getInventory",
      "outputs": [],
      "payable": false,
      "stateMutability": "nonpayable",
      "type": "function"
    },
    {
      "constant": true,
      "inputs": [],
      "name": "showInventory",
      "outputs": [
        {
          "internalType": "address[]",
          "name": "",
          "type": "address[]"
        }
      ],
      "payable": false,
      "stateMutability": "view",
      "type": "function"
    },
    {
      "constant": false,
      "inputs": [
        {
          "internalType": "uint256",
          "name": "_id",
          "type": "uint256"
        }
      ],
      "name": "Buy",
      "outputs": [],
      "payable": true,
      "stateMutability": "payable",
      "type": "function"
    },
    {
      "constant": false,
      "inputs": [
        {
          "internalType": "uint256",
          "name": "_mycouponID",
          "type": "uint256"
        },
        {
          "internalType": "uint256",
          "name": "_wantedcouponID",
          "type": "uint256"
        }
      ],
      "name": "Trade",
      "outputs": [],
      "payable": true,
      "stateMutability": "payable",
      "type": "function"
    }
  ],
  "bytecode": "0x6080604052600060045534801561001557600080fd5b50611fb4806100256000396000f3fe6080604052600436106100c25760003560e01c80635d7f850c1161007f578063afcf2e7011610059578063afcf2e70146102fc578063d0e30db014610357578063f578016e14610361578063f641d5ec1461039c576100c2565b80635d7f850c1461026f578063651b64d5146102865780638fdf8ec6146102c1576100c2565b8063169c93d1146100c757806330828e92146100ff578063314563c4146101b45780633ccfd60b146102205780633e3282181461022a578063469c6dbb14610258575b600080fd5b6100fd600480360360408110156100dd57600080fd5b810190808035906020019092919080359060200190929190505050610401565b005b34801561010b57600080fd5b506101386004803603602081101561012257600080fd5b8101908080359060200190929190505050610b7e565b604051808473ffffffffffffffffffffffffffffffffffffffff1673ffffffffffffffffffffffffffffffffffffffff1681526020018381526020018273ffffffffffffffffffffffffffffffffffffffff1673ffffffffffffffffffffffffffffffffffffffff168152602001935050505060405180910390f35b3480156101c057600080fd5b506101c9610be8565b6040518080602001828103825283818151815260200191508051906020019060200280838360005b8381101561020c5780820151818401526020810190506101f1565b505050509050019250505060405180910390f35b610228610d3c565b005b6102566004803603602081101561024057600080fd5b8101908080359060200190929190505050610e98565b005b34801561026457600080fd5b5061026d611353565b005b34801561027b57600080fd5b5061028461140a565b005b34801561029257600080fd5b506102bf600480360360208110156102a957600080fd5b81019080803590602001909291905050506115f7565b005b3480156102cd57600080fd5b506102fa600480360360208110156102e457600080fd5b81019080803590602001909291905050506117bb565b005b34801561030857600080fd5b506103556004803603604081101561031f57600080fd5b81019080803573ffffffffffffffffffffffffffffffffffffffff1690602001909291908035906020019092919050505061197f565b005b61035f611c9c565b005b34801561036d57600080fd5b5061039a6004803603602081101561038457600080fd5b8101908080359060200190929190505050611db1565b005b3480156103a857600080fd5b506103eb600480360360208110156103bf57600080fd5b81019080803573ffffffffffffffffffffffffffffffffffffffff169060200190929190505050611f67565b6040518082815260200191505060405180910390f35b60011515600360003373ffffffffffffffffffffffffffffffffffffffff1673ffffffffffffffffffffffffffffffffffffffff16815260200190815260200160002060009054906101000a900460ff161515146104c7576040517f08c379a000000000000000000000000000000000000000000000000000000000815260040180806020018281038252601e8152602001807f5573657220646f6573206e6f7420206861766520616e206163636f756e74000081525060200191505060405180910390fd5b6001600083815260200190815260200160002060020160009054906101000a900473ffffffffffffffffffffffffffffffffffffffff1673ffffffffffffffffffffffffffffffffffffffff163373ffffffffffffffffffffffffffffffffffffffff161461059e576040517f08c379a00000000000000000000000000000000000000000000000000000000081526004018080602001828103825260158152602001807f596f7520617265204e6f7420746865206f776e6572000000000000000000000081525060200191505060405180910390fd5b6001600082815260200190815260200160002060020160009054906101000a900473ffffffffffffffffffffffffffffffffffffffff1673ffffffffffffffffffffffffffffffffffffffff163373ffffffffffffffffffffffffffffffffffffffff161415610676576040517f08c379a00000000000000000000000000000000000000000000000000000000081526004018080602001828103825260138152602001807f5468697320697320796f757220636f75706f6e0000000000000000000000000081525060200191505060405180910390fd5b34600260003373ffffffffffffffffffffffffffffffffffffffff1673ffffffffffffffffffffffffffffffffffffffff16815260200190815260200160002054101561072b576040517f08c379a00000000000000000000000000000000000000000000000000000000081526004018080602001828103825260128152602001807f556e73756666696369656e742046756e6473000000000000000000000000000081525060200191505060405180910390fd5b600160008281526020019081526020016000206001015434600160008581526020019081526020016000206001015401146107ce576040517f08c379a00000000000000000000000000000000000000000000000000000000081526004018080602001828103825260108152602001807f4e6f7420656e6f7567682066756e64730000000000000000000000000000000081525060200191505060405180910390fd5b60016000806001600086815260200190815260200160002060000160009054906101000a900473ffffffffffffffffffffffffffffffffffffffff1673ffffffffffffffffffffffffffffffffffffffff1673ffffffffffffffffffffffffffffffffffffffff16815260200190815260200160002060006101000a81548160ff02191690831515021790556108cc576040517f08c379a00000000000000000000000000000000000000000000000000000000081526004018080602001828103825260178152602001807f4e6f74204176616c6961626c6520666f7220547261646500000000000000000081525060200191505060405180910390fd5b60016000806001600085815260200190815260200160002060000160009054906101000a900473ffffffffffffffffffffffffffffffffffffffff1673ffffffffffffffffffffffffffffffffffffffff1673ffffffffffffffffffffffffffffffffffffffff16815260200190815260200160002060006101000a81548160ff02191690831515021790556109ca576040517f08c379a00000000000000000000000000000000000000000000000000000000081526004018080602001828103825260188152602001807f204e6f74204176616c6961626c6520666f72205472616465000000000000000081525060200191505060405180910390fd5b34600260003373ffffffffffffffffffffffffffffffffffffffff1673ffffffffffffffffffffffffffffffffffffffff1681526020019081526020016000206000828254039250508190555034600260006001600085815260200190815260200160002060020160009054906101000a900473ffffffffffffffffffffffffffffffffffffffff1673ffffffffffffffffffffffffffffffffffffffff1673ffffffffffffffffffffffffffffffffffffffff168152602001908152602001600020600082825401925050819055506001600082815260200190815260200160002060020160009054906101000a900473ffffffffffffffffffffffffffffffffffffffff166001600084815260200190815260200160002060020160006101000a81548173ffffffffffffffffffffffffffffffffffffffff021916908373ffffffffffffffffffffffffffffffffffffffff160217905550336001600083815260200190815260200160002060020160006101000a81548173ffffffffffffffffffffffffffffffffffffffff021916908373ffffffffffffffffffffffffffffffffffffffff1602179055505050565b60016020528060005260406000206000915090508060000160009054906101000a900473ffffffffffffffffffffffffffffffffffffffff16908060010154908060020160009054906101000a900473ffffffffffffffffffffffffffffffffffffffff16905083565b606060011515600360003373ffffffffffffffffffffffffffffffffffffffff1673ffffffffffffffffffffffffffffffffffffffff16815260200190815260200160002060009054906101000a900460ff16151514610cb0576040517f08c379a000000000000000000000000000000000000000000000000000000000815260040180806020018281038252601e8152602001807f5573657220646f6573206e6f7420206861766520616e206163636f756e74000081525060200191505060405180910390fd5b6006805480602002602001604051908101604052809291908181526020018280548015610d3257602002820191906000526020600020905b8160009054906101000a900473ffffffffffffffffffffffffffffffffffffffff1673ffffffffffffffffffffffffffffffffffffffff1681526020019060010190808311610ce8575b5050505050905090565b60011515600360003373ffffffffffffffffffffffffffffffffffffffff1673ffffffffffffffffffffffffffffffffffffffff16815260200190815260200160002060009054906101000a900460ff16151514610e02576040517f08c379a000000000000000000000000000000000000000000000000000000000815260040180806020018281038252601e8152602001807f5573657220646f6573206e6f7420206861766520616e206163636f756e74000081525060200191505060405180910390fd5b34600260003373ffffffffffffffffffffffffffffffffffffffff1673ffffffffffffffffffffffffffffffffffffffff168152602001908152602001600020600082825403925050819055503373ffffffffffffffffffffffffffffffffffffffff166108fc349081150290604051600060405180830381858888f19350505050158015610e95573d6000803e3d6000fd5b50565b60011515600360003373ffffffffffffffffffffffffffffffffffffffff1673ffffffffffffffffffffffffffffffffffffffff16815260200190815260200160002060009054906101000a900460ff16151514610f5e576040517f08c379a000000000000000000000000000000000000000000000000000000000815260040180806020018281038252601e8152602001807f5573657220646f6573206e6f7420206861766520616e206163636f756e74000081525060200191505060405180910390fd5b6001600082815260200190815260200160002060020160009054906101000a900473ffffffffffffffffffffffffffffffffffffffff1673ffffffffffffffffffffffffffffffffffffffff163373ffffffffffffffffffffffffffffffffffffffff161415611036576040517f08c379a00000000000000000000000000000000000000000000000000000000081526004018080602001828103825260158152602001807f596f7520617265204e6f7420746865206f776e6572000000000000000000000081525060200191505060405180910390fd5b6001600082815260200190815260200160002060010154600260003373ffffffffffffffffffffffffffffffffffffffff1673ffffffffffffffffffffffffffffffffffffffff168152602001908152602001600020541015611101576040517f08c379a00000000000000000000000000000000000000000000000000000000081526004018080602001828103825260128152602001807f556e73756666696369656e742046756e6473000000000000000000000000000081525060200191505060405180910390fd5b60016000806001600085815260200190815260200160002060000160009054906101000a900473ffffffffffffffffffffffffffffffffffffffff1673ffffffffffffffffffffffffffffffffffffffff1673ffffffffffffffffffffffffffffffffffffffff16815260200190815260200160002060006101000a81548160ff02191690831515021790556111ff576040517f08c379a00000000000000000000000000000000000000000000000000000000081526004018080602001828103825260178152602001807f4e6f74204176616c6961626c6520666f7220547261646500000000000000000081525060200191505060405180910390fd5b6001600082815260200190815260200160002060010154600260003373ffffffffffffffffffffffffffffffffffffffff1673ffffffffffffffffffffffffffffffffffffffff168152602001908152602001600020600082825403925050819055506001600082815260200190815260200160002060010154600260006001600085815260200190815260200160002060020160009054906101000a900473ffffffffffffffffffffffffffffffffffffffff1673ffffffffffffffffffffffffffffffffffffffff1673ffffffffffffffffffffffffffffffffffffffff16815260200190815260200160002060008282540192505081905550336001600083815260200190815260200160002060020160006101000a81548173ffffffffffffffffffffffffffffffffffffffff021916908373ffffffffffffffffffffffffffffffffffffffff16021790555050565b60001515600360003373ffffffffffffffffffffffffffffffffffffffff1673ffffffffffffffffffffffffffffffffffffffff16815260200190815260200160002060009054906101000a900460ff161515146113b057600080fd5b6001600360003373ffffffffffffffffffffffffffffffffffffffff1673ffffffffffffffffffffffffffffffffffffffff16815260200190815260200160002060006101000a81548160ff021916908315150217905550565b60011515600360003373ffffffffffffffffffffffffffffffffffffffff1673ffffffffffffffffffffffffffffffffffffffff16815260200190815260200160002060009054906101000a900460ff161515146114d0576040517f08c379a000000000000000000000000000000000000000000000000000000000815260040180806020018281038252601e8152602001807f5573657220646f6573206e6f7420206861766520616e206163636f756e74000081525060200191505060405180910390fd5b60008090505b6004548110156115f4573373ffffffffffffffffffffffffffffffffffffffff166001600083815260200190815260200160002060020160009054906101000a900473ffffffffffffffffffffffffffffffffffffffff1673ffffffffffffffffffffffffffffffffffffffff1614156115e75760066001600083815260200190815260200160002060000160009054906101000a900473ffffffffffffffffffffffffffffffffffffffff1690806001815401808255809150509060018203906000526020600020016000909192909190916101000a81548173ffffffffffffffffffffffffffffffffffffffff021916908373ffffffffffffffffffffffffffffffffffffffff160217905550505b80806001019150506114d6565b50565b60011515600360003373ffffffffffffffffffffffffffffffffffffffff1673ffffffffffffffffffffffffffffffffffffffff16815260200190815260200160002060009054906101000a900460ff161515146116bd576040517f08c379a000000000000000000000000000000000000000000000000000000000815260040180806020018281038252601e8152602001807f5573657220646f6573206e6f7420206861766520616e206163636f756e74000081525060200191505060405180910390fd5b6001600082815260200190815260200160002060020160009054906101000a900473ffffffffffffffffffffffffffffffffffffffff1673ffffffffffffffffffffffffffffffffffffffff163373ffffffffffffffffffffffffffffffffffffffff161461172b57600080fd5b60008060006001600085815260200190815260200160002060000160009054906101000a900473ffffffffffffffffffffffffffffffffffffffff1673ffffffffffffffffffffffffffffffffffffffff1673ffffffffffffffffffffffffffffffffffffffff16815260200190815260200160002060006101000a81548160ff02191690831515021790555050565b60011515600360003373ffffffffffffffffffffffffffffffffffffffff1673ffffffffffffffffffffffffffffffffffffffff16815260200190815260200160002060009054906101000a900460ff16151514611881576040517f08c379a000000000000000000000000000000000000000000000000000000000815260040180806020018281038252601e8152602001807f5573657220646f6573206e6f7420206861766520616e206163636f756e74000081525060200191505060405180910390fd5b6001600082815260200190815260200160002060020160009054906101000a900473ffffffffffffffffffffffffffffffffffffffff1673ffffffffffffffffffffffffffffffffffffffff163373ffffffffffffffffffffffffffffffffffffffff16146118ef57600080fd5b60016000806001600085815260200190815260200160002060000160009054906101000a900473ffffffffffffffffffffffffffffffffffffffff1673ffffffffffffffffffffffffffffffffffffffff1673ffffffffffffffffffffffffffffffffffffffff16815260200190815260200160002060006101000a81548160ff02191690831515021790555050565b60011515600360003373ffffffffffffffffffffffffffffffffffffffff1673ffffffffffffffffffffffffffffffffffffffff16815260200190815260200160002060009054906101000a900460ff16151514611a45576040517f08c379a000000000000000000000000000000000000000000000000000000000815260040180806020018281038252601e8152602001807f5573657220646f6573206e6f7420206861766520616e206163636f756e74000081525060200191505060405180910390fd5b60006001600060045481526020019081526020016000209050828160000160006101000a81548173ffffffffffffffffffffffffffffffffffffffff021916908373ffffffffffffffffffffffffffffffffffffffff160217905550818160010181905550338160020160006101000a81548173ffffffffffffffffffffffffffffffffffffffff021916908373ffffffffffffffffffffffffffffffffffffffff160217905550600581908060018154018082558091505090600182039060005260206000209060030201600090919290919091506000820160009054906101000a900473ffffffffffffffffffffffffffffffffffffffff168160000160006101000a81548173ffffffffffffffffffffffffffffffffffffffff021916908373ffffffffffffffffffffffffffffffffffffffff160217905550600182015481600101556002820160009054906101000a900473ffffffffffffffffffffffffffffffffffffffff168160020160006101000a81548173ffffffffffffffffffffffffffffffffffffffff021916908373ffffffffffffffffffffffffffffffffffffffff160217905550505050600160008060016000600454815260200190815260200160002060000160009054906101000a900473ffffffffffffffffffffffffffffffffffffffff1673ffffffffffffffffffffffffffffffffffffffff1673ffffffffffffffffffffffffffffffffffffffff16815260200190815260200160002060006101000a81548160ff021916908315150217905550600460008154809291906001019190505550505050565b60011515600360003373ffffffffffffffffffffffffffffffffffffffff1673ffffffffffffffffffffffffffffffffffffffff16815260200190815260200160002060009054906101000a900460ff16151514611d62576040517f08c379a000000000000000000000000000000000000000000000000000000000815260040180806020018281038252601e8152602001807f5573657220646f6573206e6f7420206861766520616e206163636f756e74000081525060200191505060405180910390fd5b34600260003373ffffffffffffffffffffffffffffffffffffffff1673ffffffffffffffffffffffffffffffffffffffff16815260200190815260200160002060008282540192505081905550565b60011515600360003373ffffffffffffffffffffffffffffffffffffffff1673ffffffffffffffffffffffffffffffffffffffff16815260200190815260200160002060009054906101000a900460ff16151514611e77576040517f08c379a000000000000000000000000000000000000000000000000000000000815260040180806020018281038252601e8152602001807f5573657220646f6573206e6f7420206861766520616e206163636f756e74000081525060200191505060405180910390fd5b6001600082815260200190815260200160002060020160009054906101000a900473ffffffffffffffffffffffffffffffffffffffff1673ffffffffffffffffffffffffffffffffffffffff163373ffffffffffffffffffffffffffffffffffffffff1614611ee557600080fd5b60016000828152602001908152602001600020600080820160006101000a81549073ffffffffffffffffffffffffffffffffffffffff021916905560018201600090556002820160006101000a81549073ffffffffffffffffffffffffffffffffffffffff021916905550506004600081548092919060019003919050555050565b6002602052806000526040600020600091509050548156fea265627a7a7231582074adbc2727b3e31a941aeac979b4ff00f4928b2690299ec3804eefa43e5a957164736f6c63430005100032",
  "source": "pragma solidity  >=0.4.21 <0.7.0;\r\n\r\ncontract couponModify{\r\n \r\n   \r\n    mapping(address => bool)internal Avaliable;\r\n    mapping(uint => Inventory) public coupons;\r\n    mapping(address => uint) public ownerAccounts;\r\n    mapping(address => bool)internal hasSigned;\r\n  \r\n    uint idcoupon=0;\r\n   // bool signed = false;\r\n    struct Inventory{\r\n        address couponAddress;\r\n        uint value; \r\n        address payable owner;\r\n    }\r\n    \r\n    Inventory[] internal coupon;\r\n    address[] internal couponAccts;\r\n    \r\n    modifier isSigned(){\r\n        require (hasSigned[msg.sender] == true, \"User does not  have an account\");\r\n        _;\r\n    }\r\n    \r\n    function setAccount () external {\r\n        require (hasSigned[msg.sender] == false);\r\n        hasSigned[msg.sender] = true;\r\n       \r\n    }\r\n   \r\n   \r\n    function deposit () external payable isSigned {\r\n        ownerAccounts[msg.sender] += msg.value;\r\n    }\r\n    function withdraw () external payable isSigned {\r\n        ownerAccounts[msg.sender] -= msg.value;\r\n        msg.sender.transfer(msg.value);\r\n    }\r\n    \r\n     function addNew(address _couponAddress, uint _val) external isSigned  {\r\n        Inventory storage new_coupon = coupons[idcoupon];\r\n        new_coupon.couponAddress = _couponAddress;\r\n        new_coupon.value = _val;\r\n        new_coupon.owner = msg.sender;\r\n        \r\n        coupon.push(new_coupon);\r\n        Avaliable[coupons[idcoupon].couponAddress]=true;\r\n        idcoupon++;\r\n         \r\n    }\r\n    \r\n    \r\n    function UseCoupon (uint _id) external isSigned {\r\n        require(msg.sender == coupons[_id].owner);\r\n        delete coupons[_id];\r\n            idcoupon--; \r\n        \r\n    }\r\n    \r\n    function Remove_from_Market (uint _id) external isSigned{\r\n        require(msg.sender == coupons[_id].owner);\r\n        Avaliable[coupons[_id].couponAddress]=false;\r\n    }\r\n    \r\n    function Add_to_Market (uint _id) external isSigned{\r\n        require(msg.sender == coupons[_id].owner);\r\n        Avaliable[coupons[_id].couponAddress]=true;\r\n    }\r\n    \r\n    \r\n\r\n    function getInventory ()  external isSigned  {\r\n        \r\n        for(uint i=0; i<idcoupon; i++){\r\n            if (coupons[i].owner == msg.sender){\r\n                couponAccts.push(coupons[i].couponAddress);         \r\n            }    \r\n        }\r\n    }\r\n    \r\n    function showInventory () view external isSigned returns (address[] memory){\r\n              \r\n        return couponAccts;\r\n    }\r\n    \r\n    \r\n    \r\n    function Buy (uint _id) external payable isSigned{\r\n        require(msg.sender != coupons[_id].owner,  \"You are Not the owner\");\r\n        require(ownerAccounts[msg.sender] >= coupons[_id].value,  \"Unsufficient Funds\");\r\n        require(Avaliable[coupons[_id].couponAddress]=true, \"Not Avaliable for Trade\");\r\n        \r\n        \r\n        ownerAccounts[msg.sender] -= coupons[_id].value;\r\n        ownerAccounts[coupons[_id].owner] += coupons[_id].value;\r\n        coupons[_id].owner = msg.sender;\r\n    }\r\n    \r\n\r\n    function Trade(uint _mycouponID, uint _wantedcouponID) external payable isSigned{\r\n        \r\n        require(msg.sender == coupons[_mycouponID].owner, \"You are Not the owner\");\r\n        require(msg.sender != coupons[_wantedcouponID].owner, \"This is your coupon\");\r\n        require (ownerAccounts[msg.sender] >= msg.value, \"Unsufficient Funds\");\r\n        require( coupons[_mycouponID].value +  msg.value == coupons[_wantedcouponID].value, \"Not enough funds\" );\r\n        require(Avaliable[coupons[_mycouponID].couponAddress]=true, \"Not Avaliable for Trade\");\r\n        require(Avaliable[coupons[_wantedcouponID].couponAddress]=true, \" Not Avaliable for Trade\");\r\n        \r\n        ownerAccounts[msg.sender] -= msg.value;\r\n        ownerAccounts[coupons[_wantedcouponID].owner] += msg.value;\r\n        \r\n        coupons[_mycouponID].owner = coupons[_wantedcouponID].owner;\r\n        coupons[_wantedcouponID].owner = msg.sender;\r\n    }\r\n    \r\n    \r\n    \r\n}\r\n   \r\n\r\n",
  "sourcePath": "C:\\Users\\Mavris\\Desktop\\uni\\semesters\\8 semester\\blockchain\\final assigment\\Coupon-Dapp\\product_modify\\product-modify\\contracts\\Coupon_modify.sol",
  "compiler": {
    "name": "solc",
    "version": "0.5.16+commit.9c3226ce.Emscripten.clang"
  },
  "schemaVersion": "3.1.0",
  "updatedAt": "2020-07-28T11:11:38.624Z",
  "devdoc": {
    "methods": {}
  },
  "userdoc": {
    "methods": {}
  }
}